{
  "_format": "hh-sol-artifact-1",
  "contractName": "NFTContract",
  "sourceName": "contracts/artWork.sol",
  "abi": [
    {
      "inputs": [
        {
          "internalType": "string",
          "name": "name",
          "type": "string"
        },
        {
          "internalType": "string",
          "name": "symbol",
          "type": "string"
        }
      ],
      "stateMutability": "nonpayable",
      "type": "constructor"
    },
    {
      "anonymous": false,
      "inputs": [
        {
          "indexed": true,
          "internalType": "address",
          "name": "owner",
          "type": "address"
        },
        {
          "indexed": true,
          "internalType": "address",
          "name": "approved",
          "type": "address"
        },
        {
          "indexed": true,
          "internalType": "uint256",
          "name": "tokenId",
          "type": "uint256"
        }
      ],
      "name": "Approval",
      "type": "event"
    },
    {
      "anonymous": false,
      "inputs": [
        {
          "indexed": true,
          "internalType": "address",
          "name": "owner",
          "type": "address"
        },
        {
          "indexed": true,
          "internalType": "address",
          "name": "operator",
          "type": "address"
        },
        {
          "indexed": false,
          "internalType": "bool",
          "name": "approved",
          "type": "bool"
        }
      ],
      "name": "ApprovalForAll",
      "type": "event"
    },
    {
      "anonymous": false,
      "inputs": [
        {
          "indexed": true,
          "internalType": "address",
          "name": "from",
          "type": "address"
        },
        {
          "indexed": true,
          "internalType": "address",
          "name": "to",
          "type": "address"
        },
        {
          "indexed": true,
          "internalType": "uint256",
          "name": "tokenId",
          "type": "uint256"
        }
      ],
      "name": "Transfer",
      "type": "event"
    },
    {
      "inputs": [
        {
          "internalType": "address",
          "name": "to",
          "type": "address"
        },
        {
          "internalType": "uint256",
          "name": "tokenId",
          "type": "uint256"
        }
      ],
      "name": "approve",
      "outputs": [],
      "stateMutability": "nonpayable",
      "type": "function"
    },
    {
      "inputs": [
        {
          "internalType": "address",
          "name": "owner",
          "type": "address"
        }
      ],
      "name": "balanceOf",
      "outputs": [
        {
          "internalType": "uint256",
          "name": "",
          "type": "uint256"
        }
      ],
      "stateMutability": "view",
      "type": "function"
    },
    {
      "inputs": [
        {
          "internalType": "contract IERC721",
          "name": "nft",
          "type": "address"
        },
        {
          "internalType": "uint256",
          "name": "_tokenId",
          "type": "uint256"
        },
        {
          "internalType": "address payable[]",
          "name": "clients",
          "type": "address[]"
        },
        {
          "internalType": "uint256[]",
          "name": "amounts",
          "type": "uint256[]"
        }
      ],
      "name": "buyNft",
      "outputs": [],
      "stateMutability": "payable",
      "type": "function"
    },
    {
      "inputs": [
        {
          "internalType": "uint256",
          "name": "tokenId",
          "type": "uint256"
        }
      ],
      "name": "getApproved",
      "outputs": [
        {
          "internalType": "address",
          "name": "",
          "type": "address"
        }
      ],
      "stateMutability": "view",
      "type": "function"
    },
    {
      "inputs": [
        {
          "internalType": "address",
          "name": "owner",
          "type": "address"
        },
        {
          "internalType": "address",
          "name": "operator",
          "type": "address"
        }
      ],
      "name": "isApprovedForAll",
      "outputs": [
        {
          "internalType": "bool",
          "name": "",
          "type": "bool"
        }
      ],
      "stateMutability": "view",
      "type": "function"
    },
    {
      "inputs": [
        {
          "internalType": "string",
          "name": "_tokenURI",
          "type": "string"
        }
      ],
      "name": "mint",
      "outputs": [
        {
          "internalType": "uint256",
          "name": "",
          "type": "uint256"
        }
      ],
      "stateMutability": "nonpayable",
      "type": "function"
    },
    {
      "inputs": [],
      "name": "name",
      "outputs": [
        {
          "internalType": "string",
          "name": "",
          "type": "string"
        }
      ],
      "stateMutability": "view",
      "type": "function"
    },
    {
      "inputs": [
        {
          "internalType": "uint256",
          "name": "tokenId",
          "type": "uint256"
        }
      ],
      "name": "ownerOf",
      "outputs": [
        {
          "internalType": "address",
          "name": "",
          "type": "address"
        }
      ],
      "stateMutability": "view",
      "type": "function"
    },
    {
      "inputs": [
        {
          "internalType": "address",
          "name": "from",
          "type": "address"
        },
        {
          "internalType": "address",
          "name": "to",
          "type": "address"
        }
      ],
      "name": "safeTransferFrom",
      "outputs": [],
      "stateMutability": "nonpayable",
      "type": "function"
    },
    {
      "inputs": [
        {
          "internalType": "address",
          "name": "from",
          "type": "address"
        },
        {
          "internalType": "address",
          "name": "",
          "type": "address"
        },
        {
          "internalType": "uint256",
          "name": "tokenId",
          "type": "uint256"
        },
        {
          "internalType": "bytes",
          "name": "data",
          "type": "bytes"
        }
      ],
      "name": "safeTransferFrom",
      "outputs": [],
      "stateMutability": "nonpayable",
      "type": "function"
    },
    {
      "inputs": [
        {
          "internalType": "address",
          "name": "operator",
          "type": "address"
        },
        {
          "internalType": "bool",
          "name": "approved",
          "type": "bool"
        }
      ],
      "name": "setApprovalForAll",
      "outputs": [],
      "stateMutability": "nonpayable",
      "type": "function"
    },
    {
      "inputs": [
        {
          "internalType": "bytes4",
          "name": "interfaceId",
          "type": "bytes4"
        }
      ],
      "name": "supportsInterface",
      "outputs": [
        {
          "internalType": "bool",
          "name": "",
          "type": "bool"
        }
      ],
      "stateMutability": "view",
      "type": "function"
    },
    {
      "inputs": [],
      "name": "symbol",
      "outputs": [
        {
          "internalType": "string",
          "name": "",
          "type": "string"
        }
      ],
      "stateMutability": "view",
      "type": "function"
    },
    {
      "inputs": [],
      "name": "tokenCounter",
      "outputs": [
        {
          "internalType": "uint256",
          "name": "",
          "type": "uint256"
        }
      ],
      "stateMutability": "view",
      "type": "function"
    },
    {
      "inputs": [
        {
          "internalType": "uint256",
          "name": "_tokenId",
          "type": "uint256"
        }
      ],
      "name": "tokenURI",
      "outputs": [
        {
          "internalType": "string",
          "name": "",
          "type": "string"
        }
      ],
      "stateMutability": "view",
      "type": "function"
    },
    {
      "inputs": [
        {
          "internalType": "address",
          "name": "from",
          "type": "address"
        },
        {
          "internalType": "address",
          "name": "to",
          "type": "address"
        },
        {
          "internalType": "uint256",
          "name": "tokenId",
          "type": "uint256"
        }
      ],
      "name": "transferFrom",
      "outputs": [],
      "stateMutability": "nonpayable",
      "type": "function"
    }
  ],
  "bytecode": "0x60806040523480156200001157600080fd5b5060405162002e7438038062002e74833981810160405281019062000037919062000197565b818181600090805190602001906200005192919062000075565b5080600190805190602001906200006a92919062000075565b50505050506200037a565b82805462000083906200029f565b90600052602060002090601f016020900481019282620000a75760008555620000f3565b82601f10620000c257805160ff1916838001178555620000f3565b82800160010185558215620000f3579182015b82811115620000f2578251825591602001919060010190620000d5565b5b50905062000102919062000106565b5090565b5b808211156200012157600081600090555060010162000107565b5090565b60006200013c620001368462000233565b6200020a565b9050828152602081018484840111156200015557600080fd5b6200016284828562000269565b509392505050565b600082601f8301126200017c57600080fd5b81516200018e84826020860162000125565b91505092915050565b60008060408385031215620001ab57600080fd5b600083015167ffffffffffffffff811115620001c657600080fd5b620001d4858286016200016a565b925050602083015167ffffffffffffffff811115620001f257600080fd5b62000200858286016200016a565b9150509250929050565b60006200021662000229565b9050620002248282620002d5565b919050565b6000604051905090565b600067ffffffffffffffff8211156200025157620002506200033a565b5b6200025c8262000369565b9050602081019050919050565b60005b83811015620002895780820151818401526020810190506200026c565b8381111562000299576000848401525b50505050565b60006002820490506001821680620002b857607f821691505b60208210811415620002cf57620002ce6200030b565b5b50919050565b620002e08262000369565b810181811067ffffffffffffffff821117156200030257620003016200033a565b5b80604052505050565b7f4e487b7100000000000000000000000000000000000000000000000000000000600052602260045260246000fd5b7f4e487b7100000000000000000000000000000000000000000000000000000000600052604160045260246000fd5b6000601f19601f8301169050919050565b612aea806200038a6000396000f3fe6080604052600436106100f35760003560e01c806395d89b411161008a578063c87b56dd11610059578063c87b56dd1461032b578063d082e38114610368578063d85d3d2714610393578063e985e9c5146103d0576100f3565b806395d89b41146102925780639cabb9e3146102bd578063a22cb465146102d9578063b88d4fde14610302576100f3565b806323b872dd116100c657806323b872dd146101c657806342842e0e146101ef5780636352211e1461021857806370a0823114610255576100f3565b806301ffc9a7146100f857806306fdde0314610135578063081812fc14610160578063095ea7b31461019d575b600080fd5b34801561010457600080fd5b5061011f600480360381019061011a9190611d78565b61040d565b60405161012c9190612171565b60405180910390f35b34801561014157600080fd5b5061014a6104ef565b604051610157919061218c565b60405180910390f35b34801561016c57600080fd5b5061018760048036038101906101829190611e9e565b610581565b604051610194919061210a565b60405180910390f35b3480156101a957600080fd5b506101c460048036038101906101bf9190611d3c565b6105c7565b005b3480156101d257600080fd5b506101ed60048036038101906101e89190611c36565b6106df565b005b3480156101fb57600080fd5b5061021660048036038101906102119190611c36565b61073f565b005b34801561022457600080fd5b5061023f600480360381019061023a9190611e9e565b61075f565b60405161024c919061210a565b60405180910390f35b34801561026157600080fd5b5061027c60048036038101906102779190611ba8565b610811565b604051610289919061232e565b60405180910390f35b34801561029e57600080fd5b506102a76108c9565b6040516102b4919061218c565b60405180910390f35b6102d760048036038101906102d29190611dca565b61095b565b005b3480156102e557600080fd5b5061030060048036038101906102fb9190611d00565b610af4565b005b34801561030e57600080fd5b5061032960048036038101906103249190611c85565b610b0a565b005b34801561033757600080fd5b50610352600480360381019061034d9190611e9e565b610b6c565b60405161035f919061218c565b60405180910390f35b34801561037457600080fd5b5061037d610c59565b60405161038a919061232e565b60405180910390f35b34801561039f57600080fd5b506103ba60048036038101906103b59190611e5d565b610c5f565b6040516103c7919061232e565b60405180910390f35b3480156103dc57600080fd5b506103f760048036038101906103f29190611bfa565b610c9b565b6040516104049190612171565b60405180910390f35b60007f80ac58cd000000000000000000000000000000000000000000000000000000007bffffffffffffffffffffffffffffffffffffffffffffffffffffffff1916827bffffffffffffffffffffffffffffffffffffffffffffffffffffffff191614806104d857507f5b5e139f000000000000000000000000000000000000000000000000000000007bffffffffffffffffffffffffffffffffffffffffffffffffffffffff1916827bffffffffffffffffffffffffffffffffffffffffffffffffffffffff1916145b806104e857506104e782610d2f565b5b9050919050565b6060600080546104fe906125c4565b80601f016020809104026020016040519081016040528092919081815260200182805461052a906125c4565b80156105775780601f1061054c57610100808354040283529160200191610577565b820191906000526020600020905b81548152906001019060200180831161055a57829003601f168201915b5050505050905090565b600061058c82610d99565b6004600083815260200190815260200160002060009054906101000a900473ffffffffffffffffffffffffffffffffffffffff169050919050565b60006105d28261075f565b90508073ffffffffffffffffffffffffffffffffffffffff168373ffffffffffffffffffffffffffffffffffffffff161415610643576040517f08c379a000000000000000000000000000000000000000000000000000000000815260040161063a906122ee565b60405180910390fd5b8073ffffffffffffffffffffffffffffffffffffffff16610662610de4565b73ffffffffffffffffffffffffffffffffffffffff16148061069157506106908161068b610de4565b610c9b565b5b6106d0576040517f08c379a00000000000000000000000000000000000000000000000000000000081526004016106c79061226e565b60405180910390fd5b6106da8383610dec565b505050565b6106f06106ea610de4565b82610ea5565b61072f576040517f08c379a00000000000000000000000000000000000000000000000000000000081526004016107269061230e565b60405180910390fd5b61073a838383610f3a565b505050565b61075a83838360405180602001604052806000815250610b0a565b505050565b6000806002600084815260200190815260200160002060009054906101000a900473ffffffffffffffffffffffffffffffffffffffff169050600073ffffffffffffffffffffffffffffffffffffffff168173ffffffffffffffffffffffffffffffffffffffff161415610808576040517f08c379a00000000000000000000000000000000000000000000000000000000081526004016107ff906122ce565b60405180910390fd5b80915050919050565b60008073ffffffffffffffffffffffffffffffffffffffff168273ffffffffffffffffffffffffffffffffffffffff161415610882576040517f08c379a00000000000000000000000000000000000000000000000000000000081526004016108799061224e565b60405180910390fd5b600360008373ffffffffffffffffffffffffffffffffffffffff1673ffffffffffffffffffffffffffffffffffffffff168152602001908152602001600020549050919050565b6060600180546108d8906125c4565b80601f0160208091040260200160405190810160405280929190818152602001828054610904906125c4565b80156109515780601f1061092657610100808354040283529160200191610951565b820191906000526020600020905b81548152906001019060200180831161093457829003601f168201915b5050505050905090565b60008473ffffffffffffffffffffffffffffffffffffffff16636352211e856040518263ffffffff1660e01b8152600401610996919061232e565b60206040518083038186803b1580156109ae57600080fd5b505afa1580156109c2573d6000803e3d6000fd5b505050506040513d601f19601f820116820180604052508101906109e69190611bd1565b9050600083519050825181146109fb57600080fd5b610a06823387610f3a565b60005b81811015610aeb57848181518110610a4a577f4e487b7100000000000000000000000000000000000000000000000000000000600052603260045260246000fd5b602002602001015173ffffffffffffffffffffffffffffffffffffffff166108fc858381518110610aa4577f4e487b7100000000000000000000000000000000000000000000000000000000600052603260045260246000fd5b60200260200101519081150290604051600060405180830381858888f19350505050158015610ad7573d6000803e3d6000fd5b508080610ae390612627565b915050610a09565b50505050505050565b610b06610aff610de4565b83836111a1565b5050565b610b1b610b15610de4565b83610ea5565b610b5a576040517f08c379a0000000000000000000000000000000000000000000000000000000008152600401610b519061230e565b60405180910390fd5b610b668484848461130e565b50505050565b6060610b778261136a565b610bb6576040517f08c379a0000000000000000000000000000000000000000000000000000000008152600401610bad906122ae565b60405180910390fd5b600860008381526020019081526020016000208054610bd4906125c4565b80601f0160208091040260200160405190810160405280929190818152602001828054610c00906125c4565b8015610c4d5780601f10610c2257610100808354040283529160200191610c4d565b820191906000526020600020905b815481529060010190602001808311610c3057829003601f168201915b50505050509050919050565b60075481565b600060076000815480929190610c7490612627565b9190505550610c85336007546113d6565b610c91600754836113f4565b6007549050919050565b6000600560008473ffffffffffffffffffffffffffffffffffffffff1673ffffffffffffffffffffffffffffffffffffffff16815260200190815260200160002060008373ffffffffffffffffffffffffffffffffffffffff1673ffffffffffffffffffffffffffffffffffffffff16815260200190815260200160002060009054906101000a900460ff16905092915050565b60007f01ffc9a7000000000000000000000000000000000000000000000000000000007bffffffffffffffffffffffffffffffffffffffffffffffffffffffff1916827bffffffffffffffffffffffffffffffffffffffffffffffffffffffff1916149050919050565b610da28161136a565b610de1576040517f08c379a0000000000000000000000000000000000000000000000000000000008152600401610dd8906122ce565b60405180910390fd5b50565b600033905090565b816004600083815260200190815260200160002060006101000a81548173ffffffffffffffffffffffffffffffffffffffff021916908373ffffffffffffffffffffffffffffffffffffffff160217905550808273ffffffffffffffffffffffffffffffffffffffff16610e5f8361075f565b73ffffffffffffffffffffffffffffffffffffffff167f8c5be1e5ebec7d5bd14f71427d1e84f3dd0314c0f7b2291e5b200ac8c7c3b92560405160405180910390a45050565b600080610eb18361075f565b90508073ffffffffffffffffffffffffffffffffffffffff168473ffffffffffffffffffffffffffffffffffffffff161480610ef35750610ef28185610c9b565b5b80610f3157508373ffffffffffffffffffffffffffffffffffffffff16610f1984610581565b73ffffffffffffffffffffffffffffffffffffffff16145b91505092915050565b8273ffffffffffffffffffffffffffffffffffffffff16610f5a8261075f565b73ffffffffffffffffffffffffffffffffffffffff1614610fb0576040517f08c379a0000000000000000000000000000000000000000000000000000000008152600401610fa7906121ce565b60405180910390fd5b600073ffffffffffffffffffffffffffffffffffffffff168273ffffffffffffffffffffffffffffffffffffffff161415611020576040517f08c379a00000000000000000000000000000000000000000000000000000000081526004016110179061220e565b60405180910390fd5b61102b838383611468565b611036600082610dec565b6001600360008573ffffffffffffffffffffffffffffffffffffffff1673ffffffffffffffffffffffffffffffffffffffff168152602001908152602001600020600082825461108691906124b6565b925050819055506001600360008473ffffffffffffffffffffffffffffffffffffffff1673ffffffffffffffffffffffffffffffffffffffff16815260200190815260200160002060008282546110dd9190612460565b92505081905550816002600083815260200190815260200160002060006101000a81548173ffffffffffffffffffffffffffffffffffffffff021916908373ffffffffffffffffffffffffffffffffffffffff160217905550808273ffffffffffffffffffffffffffffffffffffffff168473ffffffffffffffffffffffffffffffffffffffff167fddf252ad1be2c89b69c2b068fc378daa952ba7f163c4a11628f55a4df523b3ef60405160405180910390a461119c83838361146d565b505050565b8173ffffffffffffffffffffffffffffffffffffffff168373ffffffffffffffffffffffffffffffffffffffff161415611210576040517f08c379a00000000000000000000000000000000000000000000000000000000081526004016112079061222e565b60405180910390fd5b80600560008573ffffffffffffffffffffffffffffffffffffffff1673ffffffffffffffffffffffffffffffffffffffff16815260200190815260200160002060008473ffffffffffffffffffffffffffffffffffffffff1673ffffffffffffffffffffffffffffffffffffffff16815260200190815260200160002060006101000a81548160ff0219169083151502179055508173ffffffffffffffffffffffffffffffffffffffff168373ffffffffffffffffffffffffffffffffffffffff167f17307eab39ab6107e8899845ad3d59bd9653f200f220920489ca2b5937696c31836040516113019190612171565b60405180910390a3505050565b611319848484610f3a565b61132584848484611472565b611364576040517f08c379a000000000000000000000000000000000000000000000000000000000815260040161135b906121ae565b60405180910390fd5b50505050565b60008073ffffffffffffffffffffffffffffffffffffffff166002600084815260200190815260200160002060009054906101000a900473ffffffffffffffffffffffffffffffffffffffff1673ffffffffffffffffffffffffffffffffffffffff1614159050919050565b6113f0828260405180602001604052806000815250611609565b5050565b6113fd8261136a565b61143c576040517f08c379a0000000000000000000000000000000000000000000000000000000008152600401611433906122ae565b60405180910390fd5b80600860008481526020019081526020016000209080519060200190611463929190611861565b505050565b505050565b505050565b60006114938473ffffffffffffffffffffffffffffffffffffffff16611664565b156115fc578373ffffffffffffffffffffffffffffffffffffffff1663150b7a026114bc610de4565b8786866040518563ffffffff1660e01b81526004016114de9493929190612125565b602060405180830381600087803b1580156114f857600080fd5b505af192505050801561152957506040513d601f19601f820116820180604052508101906115269190611da1565b60015b6115ac573d8060008114611559576040519150601f19603f3d011682016040523d82523d6000602084013e61155e565b606091505b506000815114156115a4576040517f08c379a000000000000000000000000000000000000000000000000000000000815260040161159b906121ae565b60405180910390fd5b805181602001fd5b63150b7a0260e01b7bffffffffffffffffffffffffffffffffffffffffffffffffffffffff1916817bffffffffffffffffffffffffffffffffffffffffffffffffffffffff191614915050611601565b600190505b949350505050565b6116138383611687565b6116206000848484611472565b61165f576040517f08c379a0000000000000000000000000000000000000000000000000000000008152600401611656906121ae565b60405180910390fd5b505050565b6000808273ffffffffffffffffffffffffffffffffffffffff163b119050919050565b600073ffffffffffffffffffffffffffffffffffffffff168273ffffffffffffffffffffffffffffffffffffffff1614156116f7576040517f08c379a00000000000000000000000000000000000000000000000000000000081526004016116ee9061228e565b60405180910390fd5b6117008161136a565b15611740576040517f08c379a0000000000000000000000000000000000000000000000000000000008152600401611737906121ee565b60405180910390fd5b61174c60008383611468565b6001600360008473ffffffffffffffffffffffffffffffffffffffff1673ffffffffffffffffffffffffffffffffffffffff168152602001908152602001600020600082825461179c9190612460565b92505081905550816002600083815260200190815260200160002060006101000a81548173ffffffffffffffffffffffffffffffffffffffff021916908373ffffffffffffffffffffffffffffffffffffffff160217905550808273ffffffffffffffffffffffffffffffffffffffff16600073ffffffffffffffffffffffffffffffffffffffff167fddf252ad1be2c89b69c2b068fc378daa952ba7f163c4a11628f55a4df523b3ef60405160405180910390a461185d6000838361146d565b5050565b82805461186d906125c4565b90600052602060002090601f01602090048101928261188f57600085556118d6565b82601f106118a857805160ff19168380011785556118d6565b828001600101855582156118d6579182015b828111156118d55782518255916020019190600101906118ba565b5b5090506118e391906118e7565b5090565b5b808211156119005760008160009055506001016118e8565b5090565b60006119176119128461236e565b612349565b9050808382526020820190508285602086028201111561193657600080fd5b60005b85811015611966578161194c8882611a82565b845260208401935060208301925050600181019050611939565b5050509392505050565b600061198361197e8461239a565b612349565b905080838252602082019050828560208602820111156119a257600080fd5b60005b858110156119d257816119b88882611b93565b8452602084019350602083019250506001810190506119a5565b5050509392505050565b60006119ef6119ea846123c6565b612349565b905082815260208101848484011115611a0757600080fd5b611a12848285612582565b509392505050565b6000611a2d611a28846123f7565b612349565b905082815260208101848484011115611a4557600080fd5b611a50848285612582565b509392505050565b600081359050611a6781612a2a565b92915050565b600081519050611a7c81612a2a565b92915050565b600081359050611a9181612a41565b92915050565b600082601f830112611aa857600080fd5b8135611ab8848260208601611904565b91505092915050565b600082601f830112611ad257600080fd5b8135611ae2848260208601611970565b91505092915050565b600081359050611afa81612a58565b92915050565b600081359050611b0f81612a6f565b92915050565b600081519050611b2481612a6f565b92915050565b600082601f830112611b3b57600080fd5b8135611b4b8482602086016119dc565b91505092915050565b600081359050611b6381612a86565b92915050565b600082601f830112611b7a57600080fd5b8135611b8a848260208601611a1a565b91505092915050565b600081359050611ba281612a9d565b92915050565b600060208284031215611bba57600080fd5b6000611bc884828501611a58565b91505092915050565b600060208284031215611be357600080fd5b6000611bf184828501611a6d565b91505092915050565b60008060408385031215611c0d57600080fd5b6000611c1b85828601611a58565b9250506020611c2c85828601611a58565b9150509250929050565b600080600060608486031215611c4b57600080fd5b6000611c5986828701611a58565b9350506020611c6a86828701611a58565b9250506040611c7b86828701611b93565b9150509250925092565b60008060008060808587031215611c9b57600080fd5b6000611ca987828801611a58565b9450506020611cba87828801611a58565b9350506040611ccb87828801611b93565b925050606085013567ffffffffffffffff811115611ce857600080fd5b611cf487828801611b2a565b91505092959194509250565b60008060408385031215611d1357600080fd5b6000611d2185828601611a58565b9250506020611d3285828601611aeb565b9150509250929050565b60008060408385031215611d4f57600080fd5b6000611d5d85828601611a58565b9250506020611d6e85828601611b93565b9150509250929050565b600060208284031215611d8a57600080fd5b6000611d9884828501611b00565b91505092915050565b600060208284031215611db357600080fd5b6000611dc184828501611b15565b91505092915050565b60008060008060808587031215611de057600080fd5b6000611dee87828801611b54565b9450506020611dff87828801611b93565b935050604085013567ffffffffffffffff811115611e1c57600080fd5b611e2887828801611a97565b925050606085013567ffffffffffffffff811115611e4557600080fd5b611e5187828801611ac1565b91505092959194509250565b600060208284031215611e6f57600080fd5b600082013567ffffffffffffffff811115611e8957600080fd5b611e9584828501611b69565b91505092915050565b600060208284031215611eb057600080fd5b6000611ebe84828501611b93565b91505092915050565b611ed0816124ea565b82525050565b611edf8161250e565b82525050565b6000611ef082612428565b611efa818561243e565b9350611f0a818560208601612591565b611f13816126fd565b840191505092915050565b6000611f2982612433565b611f33818561244f565b9350611f43818560208601612591565b611f4c816126fd565b840191505092915050565b6000611f6460328361244f565b9150611f6f8261270e565b604082019050919050565b6000611f8760258361244f565b9150611f928261275d565b604082019050919050565b6000611faa601c8361244f565b9150611fb5826127ac565b602082019050919050565b6000611fcd60248361244f565b9150611fd8826127d5565b604082019050919050565b6000611ff060198361244f565b9150611ffb82612824565b602082019050919050565b600061201360298361244f565b915061201e8261284d565b604082019050919050565b6000612036603e8361244f565b91506120418261289c565b604082019050919050565b600061205960208361244f565b9150612064826128eb565b602082019050919050565b600061207c602c8361244f565b915061208782612914565b604082019050919050565b600061209f60188361244f565b91506120aa82612963565b602082019050919050565b60006120c260218361244f565b91506120cd8261298c565b604082019050919050565b60006120e5602e8361244f565b91506120f0826129db565b604082019050919050565b61210481612578565b82525050565b600060208201905061211f6000830184611ec7565b92915050565b600060808201905061213a6000830187611ec7565b6121476020830186611ec7565b61215460408301856120fb565b81810360608301526121668184611ee5565b905095945050505050565b60006020820190506121866000830184611ed6565b92915050565b600060208201905081810360008301526121a68184611f1e565b905092915050565b600060208201905081810360008301526121c781611f57565b9050919050565b600060208201905081810360008301526121e781611f7a565b9050919050565b6000602082019050818103600083015261220781611f9d565b9050919050565b6000602082019050818103600083015261222781611fc0565b9050919050565b6000602082019050818103600083015261224781611fe3565b9050919050565b6000602082019050818103600083015261226781612006565b9050919050565b6000602082019050818103600083015261228781612029565b9050919050565b600060208201905081810360008301526122a78161204c565b9050919050565b600060208201905081810360008301526122c78161206f565b9050919050565b600060208201905081810360008301526122e781612092565b9050919050565b60006020820190508181036000830152612307816120b5565b9050919050565b60006020820190508181036000830152612327816120d8565b9050919050565b600060208201905061234360008301846120fb565b92915050565b6000612353612364565b905061235f82826125f6565b919050565b6000604051905090565b600067ffffffffffffffff821115612389576123886126ce565b5b602082029050602081019050919050565b600067ffffffffffffffff8211156123b5576123b46126ce565b5b602082029050602081019050919050565b600067ffffffffffffffff8211156123e1576123e06126ce565b5b6123ea826126fd565b9050602081019050919050565b600067ffffffffffffffff821115612412576124116126ce565b5b61241b826126fd565b9050602081019050919050565b600081519050919050565b600081519050919050565b600082825260208201905092915050565b600082825260208201905092915050565b600061246b82612578565b915061247683612578565b9250827fffffffffffffffffffffffffffffffffffffffffffffffffffffffffffffffff038211156124ab576124aa612670565b5b828201905092915050565b60006124c182612578565b91506124cc83612578565b9250828210156124df576124de612670565b5b828203905092915050565b60006124f582612558565b9050919050565b600061250782612558565b9050919050565b60008115159050919050565b60007fffffffff0000000000000000000000000000000000000000000000000000000082169050919050565b6000612551826124ea565b9050919050565b600073ffffffffffffffffffffffffffffffffffffffff82169050919050565b6000819050919050565b82818337600083830152505050565b60005b838110156125af578082015181840152602081019050612594565b838111156125be576000848401525b50505050565b600060028204905060018216806125dc57607f821691505b602082108114156125f0576125ef61269f565b5b50919050565b6125ff826126fd565b810181811067ffffffffffffffff8211171561261e5761261d6126ce565b5b80604052505050565b600061263282612578565b91507fffffffffffffffffffffffffffffffffffffffffffffffffffffffffffffffff82141561266557612664612670565b5b600182019050919050565b7f4e487b7100000000000000000000000000000000000000000000000000000000600052601160045260246000fd5b7f4e487b7100000000000000000000000000000000000000000000000000000000600052602260045260246000fd5b7f4e487b7100000000000000000000000000000000000000000000000000000000600052604160045260246000fd5b6000601f19601f8301169050919050565b7f4552433732313a207472616e7366657220746f206e6f6e20455243373231526560008201527f63656976657220696d706c656d656e7465720000000000000000000000000000602082015250565b7f4552433732313a207472616e736665722066726f6d20696e636f72726563742060008201527f6f776e6572000000000000000000000000000000000000000000000000000000602082015250565b7f4552433732313a20746f6b656e20616c7265616479206d696e74656400000000600082015250565b7f4552433732313a207472616e7366657220746f20746865207a65726f2061646460008201527f7265737300000000000000000000000000000000000000000000000000000000602082015250565b7f4552433732313a20617070726f766520746f2063616c6c657200000000000000600082015250565b7f4552433732313a2061646472657373207a65726f206973206e6f74206120766160008201527f6c6964206f776e65720000000000000000000000000000000000000000000000602082015250565b7f4552433732313a20617070726f76652063616c6c6572206973206e6f7420746f60008201527f6b656e206f776e6572206e6f7220617070726f76656420666f7220616c6c0000602082015250565b7f4552433732313a206d696e7420746f20746865207a65726f2061646472657373600082015250565b7f4552433732314d657461646174613a2055524920736574206f66206e6f6e657860008201527f697374656e7420746f6b656e0000000000000000000000000000000000000000602082015250565b7f4552433732313a20696e76616c696420746f6b656e2049440000000000000000600082015250565b7f4552433732313a20617070726f76616c20746f2063757272656e74206f776e6560008201527f7200000000000000000000000000000000000000000000000000000000000000602082015250565b7f4552433732313a2063616c6c6572206973206e6f7420746f6b656e206f776e6560008201527f72206e6f7220617070726f766564000000000000000000000000000000000000602082015250565b612a33816124ea565b8114612a3e57600080fd5b50565b612a4a816124fc565b8114612a5557600080fd5b50565b612a618161250e565b8114612a6c57600080fd5b50565b612a788161251a565b8114612a8357600080fd5b50565b612a8f81612546565b8114612a9a57600080fd5b50565b612aa681612578565b8114612ab157600080fd5b5056fea264697066735822122017eaa56c815e232e1443c148bc852923b230530c8894509b3c908d9edd6d1c0b64736f6c63430008040033",
  "linkReferences": {},
  "deployedLinkReferences": {}
}