{
  "_format": "hh-sol-artifact-1",
  "contractName": "NFTContract",
  "sourceName": "contracts/artWork.sol",
  "abi": [
    {
      "inputs": [
        {
          "internalType": "string",
          "name": "name",
          "type": "string"
        },
        {
          "internalType": "string",
          "name": "symbol",
          "type": "string"
        }
      ],
      "stateMutability": "nonpayable",
      "type": "constructor"
    },
    {
      "anonymous": false,
      "inputs": [
        {
          "indexed": true,
          "internalType": "address",
          "name": "owner",
          "type": "address"
        },
        {
          "indexed": true,
          "internalType": "address",
          "name": "approved",
          "type": "address"
        },
        {
          "indexed": true,
          "internalType": "uint256",
          "name": "tokenId",
          "type": "uint256"
        }
      ],
      "name": "Approval",
      "type": "event"
    },
    {
      "anonymous": false,
      "inputs": [
        {
          "indexed": true,
          "internalType": "address",
          "name": "owner",
          "type": "address"
        },
        {
          "indexed": true,
          "internalType": "address",
          "name": "operator",
          "type": "address"
        },
        {
          "indexed": false,
          "internalType": "bool",
          "name": "approved",
          "type": "bool"
        }
      ],
      "name": "ApprovalForAll",
      "type": "event"
    },
    {
      "anonymous": false,
      "inputs": [
        {
          "indexed": true,
          "internalType": "address",
          "name": "from",
          "type": "address"
        },
        {
          "indexed": true,
          "internalType": "address",
          "name": "to",
          "type": "address"
        },
        {
          "indexed": true,
          "internalType": "uint256",
          "name": "tokenId",
          "type": "uint256"
        }
      ],
      "name": "Transfer",
      "type": "event"
    },
    {
      "inputs": [
        {
          "internalType": "address",
          "name": "to",
          "type": "address"
        },
        {
          "internalType": "uint256",
          "name": "tokenId",
          "type": "uint256"
        }
      ],
      "name": "approve",
      "outputs": [],
      "stateMutability": "nonpayable",
      "type": "function"
    },
    {
      "inputs": [
        {
          "internalType": "address",
          "name": "owner",
          "type": "address"
        }
      ],
      "name": "balanceOf",
      "outputs": [
        {
          "internalType": "uint256",
          "name": "",
          "type": "uint256"
        }
      ],
      "stateMutability": "view",
      "type": "function"
    },
    {
      "inputs": [
        {
          "internalType": "contract IERC721",
          "name": "nft",
          "type": "address"
        },
        {
          "internalType": "uint256",
          "name": "_tokenId",
          "type": "uint256"
        }
      ],
      "name": "buyNft",
      "outputs": [],
      "stateMutability": "payable",
      "type": "function"
    },
    {
      "inputs": [
        {
          "internalType": "uint256",
          "name": "tokenId",
          "type": "uint256"
        }
      ],
      "name": "getApproved",
      "outputs": [
        {
          "internalType": "address",
          "name": "",
          "type": "address"
        }
      ],
      "stateMutability": "view",
      "type": "function"
    },
    {
      "inputs": [
        {
          "internalType": "address",
          "name": "owner",
          "type": "address"
        },
        {
          "internalType": "address",
          "name": "operator",
          "type": "address"
        }
      ],
      "name": "isApprovedForAll",
      "outputs": [
        {
          "internalType": "bool",
          "name": "",
          "type": "bool"
        }
      ],
      "stateMutability": "view",
      "type": "function"
    },
    {
      "inputs": [
        {
          "internalType": "string",
          "name": "_tokenURI",
          "type": "string"
        }
      ],
      "name": "mint",
      "outputs": [
        {
          "internalType": "uint256",
          "name": "",
          "type": "uint256"
        }
      ],
      "stateMutability": "nonpayable",
      "type": "function"
    },
    {
      "inputs": [],
      "name": "name",
      "outputs": [
        {
          "internalType": "string",
          "name": "",
          "type": "string"
        }
      ],
      "stateMutability": "view",
      "type": "function"
    },
    {
      "inputs": [
        {
          "internalType": "uint256",
          "name": "tokenId",
          "type": "uint256"
        }
      ],
      "name": "ownerOf",
      "outputs": [
        {
          "internalType": "address",
          "name": "",
          "type": "address"
        }
      ],
      "stateMutability": "view",
      "type": "function"
    },
    {
      "inputs": [
        {
          "internalType": "address",
          "name": "from",
          "type": "address"
        },
        {
          "internalType": "address",
          "name": "to",
          "type": "address"
        },
        {
          "internalType": "uint256",
          "name": "tokenId",
          "type": "uint256"
        }
      ],
      "name": "safeTransferFrom",
      "outputs": [],
      "stateMutability": "nonpayable",
      "type": "function"
    },
    {
      "inputs": [
        {
          "internalType": "address",
          "name": "from",
          "type": "address"
        },
        {
          "internalType": "address",
          "name": "to",
          "type": "address"
        },
        {
          "internalType": "uint256",
          "name": "tokenId",
          "type": "uint256"
        },
        {
          "internalType": "bytes",
          "name": "data",
          "type": "bytes"
        }
      ],
      "name": "safeTransferFrom",
      "outputs": [],
      "stateMutability": "nonpayable",
      "type": "function"
    },
    {
      "inputs": [
        {
          "internalType": "address",
          "name": "operator",
          "type": "address"
        },
        {
          "internalType": "bool",
          "name": "approved",
          "type": "bool"
        }
      ],
      "name": "setApprovalForAll",
      "outputs": [],
      "stateMutability": "nonpayable",
      "type": "function"
    },
    {
      "inputs": [
        {
          "internalType": "bytes4",
          "name": "interfaceId",
          "type": "bytes4"
        }
      ],
      "name": "supportsInterface",
      "outputs": [
        {
          "internalType": "bool",
          "name": "",
          "type": "bool"
        }
      ],
      "stateMutability": "view",
      "type": "function"
    },
    {
      "inputs": [],
      "name": "symbol",
      "outputs": [
        {
          "internalType": "string",
          "name": "",
          "type": "string"
        }
      ],
      "stateMutability": "view",
      "type": "function"
    },
    {
      "inputs": [],
      "name": "tokenCounter",
      "outputs": [
        {
          "internalType": "uint256",
          "name": "",
          "type": "uint256"
        }
      ],
      "stateMutability": "view",
      "type": "function"
    },
    {
      "inputs": [
        {
          "internalType": "uint256",
          "name": "_tokenId",
          "type": "uint256"
        }
      ],
      "name": "tokenURI",
      "outputs": [
        {
          "internalType": "string",
          "name": "",
          "type": "string"
        }
      ],
      "stateMutability": "view",
      "type": "function"
    },
    {
      "inputs": [
        {
          "internalType": "address",
          "name": "from",
          "type": "address"
        },
        {
          "internalType": "address",
          "name": "to",
          "type": "address"
        },
        {
          "internalType": "uint256",
          "name": "tokenId",
          "type": "uint256"
        }
      ],
      "name": "transferFrom",
      "outputs": [],
      "stateMutability": "nonpayable",
      "type": "function"
    }
  ],
  "bytecode": "0x60806040523480156200001157600080fd5b5060405162002ba638038062002ba6833981810160405281019062000037919062000197565b818181600090805190602001906200005192919062000075565b5080600190805190602001906200006a92919062000075565b50505050506200037a565b82805462000083906200029f565b90600052602060002090601f016020900481019282620000a75760008555620000f3565b82601f10620000c257805160ff1916838001178555620000f3565b82800160010185558215620000f3579182015b82811115620000f2578251825591602001919060010190620000d5565b5b50905062000102919062000106565b5090565b5b808211156200012157600081600090555060010162000107565b5090565b60006200013c620001368462000233565b6200020a565b9050828152602081018484840111156200015557600080fd5b6200016284828562000269565b509392505050565b600082601f8301126200017c57600080fd5b81516200018e84826020860162000125565b91505092915050565b60008060408385031215620001ab57600080fd5b600083015167ffffffffffffffff811115620001c657600080fd5b620001d4858286016200016a565b925050602083015167ffffffffffffffff811115620001f257600080fd5b62000200858286016200016a565b9150509250929050565b60006200021662000229565b9050620002248282620002d5565b919050565b6000604051905090565b600067ffffffffffffffff8211156200025157620002506200033a565b5b6200025c8262000369565b9050602081019050919050565b60005b83811015620002895780820151818401526020810190506200026c565b8381111562000299576000848401525b50505050565b60006002820490506001821680620002b857607f821691505b60208210811415620002cf57620002ce6200030b565b5b50919050565b620002e08262000369565b810181811067ffffffffffffffff821117156200030257620003016200033a565b5b80604052505050565b7f4e487b7100000000000000000000000000000000000000000000000000000000600052602260045260246000fd5b7f4e487b7100000000000000000000000000000000000000000000000000000000600052604160045260246000fd5b6000601f19601f8301169050919050565b61281c806200038a6000396000f3fe6080604052600436106100f35760003560e01c806370a082311161008a578063c87b56dd11610059578063c87b56dd1461032b578063d082e38114610368578063d85d3d2714610393578063e985e9c5146103d0576100f3565b806370a082311461027157806395d89b41146102ae578063a22cb465146102d9578063b88d4fde14610302576100f3565b806323b872dd116100c657806323b872dd146101c657806342842e0e146101ef5780634ddf4f8f146102185780636352211e14610234576100f3565b806301ffc9a7146100f857806306fdde0314610135578063081812fc14610160578063095ea7b31461019d575b600080fd5b34801561010457600080fd5b5061011f600480360381019061011a9190611b82565b61040d565b60405161012c9190611f24565b60405180910390f35b34801561014157600080fd5b5061014a6104ef565b6040516101579190611f3f565b60405180910390f35b34801561016c57600080fd5b5061018760048036038101906101829190611c51565b610581565b6040516101949190611ebd565b60405180910390f35b3480156101a957600080fd5b506101c460048036038101906101bf9190611b46565b6105c7565b005b3480156101d257600080fd5b506101ed60048036038101906101e89190611a40565b6106df565b005b3480156101fb57600080fd5b5061021660048036038101906102119190611a40565b61073f565b005b610232600480360381019061022d9190611bd4565b61075f565b005b34801561024057600080fd5b5061025b60048036038101906102569190611c51565b610843565b6040516102689190611ebd565b60405180910390f35b34801561027d57600080fd5b50610298600480360381019061029391906119b2565b6108f5565b6040516102a591906120e1565b60405180910390f35b3480156102ba57600080fd5b506102c36109ad565b6040516102d09190611f3f565b60405180910390f35b3480156102e557600080fd5b5061030060048036038101906102fb9190611b0a565b610a3f565b005b34801561030e57600080fd5b5061032960048036038101906103249190611a8f565b610a55565b005b34801561033757600080fd5b50610352600480360381019061034d9190611c51565b610ab7565b60405161035f9190611f3f565b60405180910390f35b34801561037457600080fd5b5061037d610ba4565b60405161038a91906120e1565b60405180910390f35b34801561039f57600080fd5b506103ba60048036038101906103b59190611c10565b610baa565b6040516103c791906120e1565b60405180910390f35b3480156103dc57600080fd5b506103f760048036038101906103f29190611a04565b610be6565b6040516104049190611f24565b60405180910390f35b60007f80ac58cd000000000000000000000000000000000000000000000000000000007bffffffffffffffffffffffffffffffffffffffffffffffffffffffff1916827bffffffffffffffffffffffffffffffffffffffffffffffffffffffff191614806104d857507f5b5e139f000000000000000000000000000000000000000000000000000000007bffffffffffffffffffffffffffffffffffffffffffffffffffffffff1916827bffffffffffffffffffffffffffffffffffffffffffffffffffffffff1916145b806104e857506104e782610c7a565b5b9050919050565b6060600080546104fe9061230d565b80601f016020809104026020016040519081016040528092919081815260200182805461052a9061230d565b80156105775780601f1061054c57610100808354040283529160200191610577565b820191906000526020600020905b81548152906001019060200180831161055a57829003601f168201915b5050505050905090565b600061058c82610ce4565b6004600083815260200190815260200160002060009054906101000a900473ffffffffffffffffffffffffffffffffffffffff169050919050565b60006105d282610843565b90508073ffffffffffffffffffffffffffffffffffffffff168373ffffffffffffffffffffffffffffffffffffffff161415610643576040517f08c379a000000000000000000000000000000000000000000000000000000000815260040161063a906120a1565b60405180910390fd5b8073ffffffffffffffffffffffffffffffffffffffff16610662610d2f565b73ffffffffffffffffffffffffffffffffffffffff16148061069157506106908161068b610d2f565b610be6565b5b6106d0576040517f08c379a00000000000000000000000000000000000000000000000000000000081526004016106c790612021565b60405180910390fd5b6106da8383610d37565b505050565b6106f06106ea610d2f565b82610df0565b61072f576040517f08c379a0000000000000000000000000000000000000000000000000000000008152600401610726906120c1565b60405180910390fd5b61073a838383610e85565b505050565b61075a83838360405180602001604052806000815250610a55565b505050565b60008273ffffffffffffffffffffffffffffffffffffffff16636352211e836040518263ffffffff1660e01b815260040161079a91906120e1565b60206040518083038186803b1580156107b257600080fd5b505afa1580156107c6573d6000803e3d6000fd5b505050506040513d601f19601f820116820180604052508101906107ea91906119db565b90506107f7813384610e85565b8073ffffffffffffffffffffffffffffffffffffffff166108fc349081150290604051600060405180830381858888f1935050505015801561083d573d6000803e3d6000fd5b50505050565b6000806002600084815260200190815260200160002060009054906101000a900473ffffffffffffffffffffffffffffffffffffffff169050600073ffffffffffffffffffffffffffffffffffffffff168173ffffffffffffffffffffffffffffffffffffffff1614156108ec576040517f08c379a00000000000000000000000000000000000000000000000000000000081526004016108e390612081565b60405180910390fd5b80915050919050565b60008073ffffffffffffffffffffffffffffffffffffffff168273ffffffffffffffffffffffffffffffffffffffff161415610966576040517f08c379a000000000000000000000000000000000000000000000000000000000815260040161095d90612001565b60405180910390fd5b600360008373ffffffffffffffffffffffffffffffffffffffff1673ffffffffffffffffffffffffffffffffffffffff168152602001908152602001600020549050919050565b6060600180546109bc9061230d565b80601f01602080910402602001604051908101604052809291908181526020018280546109e89061230d565b8015610a355780601f10610a0a57610100808354040283529160200191610a35565b820191906000526020600020905b815481529060010190602001808311610a1857829003601f168201915b5050505050905090565b610a51610a4a610d2f565b83836110ec565b5050565b610a66610a60610d2f565b83610df0565b610aa5576040517f08c379a0000000000000000000000000000000000000000000000000000000008152600401610a9c906120c1565b60405180910390fd5b610ab184848484611259565b50505050565b6060610ac2826112b5565b610b01576040517f08c379a0000000000000000000000000000000000000000000000000000000008152600401610af890612061565b60405180910390fd5b600860008381526020019081526020016000208054610b1f9061230d565b80601f0160208091040260200160405190810160405280929190818152602001828054610b4b9061230d565b8015610b985780601f10610b6d57610100808354040283529160200191610b98565b820191906000526020600020905b815481529060010190602001808311610b7b57829003601f168201915b50505050509050919050565b60075481565b600060076000815480929190610bbf90612370565b9190505550610bd033600754611321565b610bdc6007548361133f565b6007549050919050565b6000600560008473ffffffffffffffffffffffffffffffffffffffff1673ffffffffffffffffffffffffffffffffffffffff16815260200190815260200160002060008373ffffffffffffffffffffffffffffffffffffffff1673ffffffffffffffffffffffffffffffffffffffff16815260200190815260200160002060009054906101000a900460ff16905092915050565b60007f01ffc9a7000000000000000000000000000000000000000000000000000000007bffffffffffffffffffffffffffffffffffffffffffffffffffffffff1916827bffffffffffffffffffffffffffffffffffffffffffffffffffffffff1916149050919050565b610ced816112b5565b610d2c576040517f08c379a0000000000000000000000000000000000000000000000000000000008152600401610d2390612081565b60405180910390fd5b50565b600033905090565b816004600083815260200190815260200160002060006101000a81548173ffffffffffffffffffffffffffffffffffffffff021916908373ffffffffffffffffffffffffffffffffffffffff160217905550808273ffffffffffffffffffffffffffffffffffffffff16610daa83610843565b73ffffffffffffffffffffffffffffffffffffffff167f8c5be1e5ebec7d5bd14f71427d1e84f3dd0314c0f7b2291e5b200ac8c7c3b92560405160405180910390a45050565b600080610dfc83610843565b90508073ffffffffffffffffffffffffffffffffffffffff168473ffffffffffffffffffffffffffffffffffffffff161480610e3e5750610e3d8185610be6565b5b80610e7c57508373ffffffffffffffffffffffffffffffffffffffff16610e6484610581565b73ffffffffffffffffffffffffffffffffffffffff16145b91505092915050565b8273ffffffffffffffffffffffffffffffffffffffff16610ea582610843565b73ffffffffffffffffffffffffffffffffffffffff1614610efb576040517f08c379a0000000000000000000000000000000000000000000000000000000008152600401610ef290611f81565b60405180910390fd5b600073ffffffffffffffffffffffffffffffffffffffff168273ffffffffffffffffffffffffffffffffffffffff161415610f6b576040517f08c379a0000000000000000000000000000000000000000000000000000000008152600401610f6290611fc1565b60405180910390fd5b610f768383836113b3565b610f81600082610d37565b6001600360008573ffffffffffffffffffffffffffffffffffffffff1673ffffffffffffffffffffffffffffffffffffffff1681526020019081526020016000206000828254610fd19190612211565b925050819055506001600360008473ffffffffffffffffffffffffffffffffffffffff1673ffffffffffffffffffffffffffffffffffffffff168152602001908152602001600020600082825461102891906121bb565b92505081905550816002600083815260200190815260200160002060006101000a81548173ffffffffffffffffffffffffffffffffffffffff021916908373ffffffffffffffffffffffffffffffffffffffff160217905550808273ffffffffffffffffffffffffffffffffffffffff168473ffffffffffffffffffffffffffffffffffffffff167fddf252ad1be2c89b69c2b068fc378daa952ba7f163c4a11628f55a4df523b3ef60405160405180910390a46110e78383836113b8565b505050565b8173ffffffffffffffffffffffffffffffffffffffff168373ffffffffffffffffffffffffffffffffffffffff16141561115b576040517f08c379a000000000000000000000000000000000000000000000000000000000815260040161115290611fe1565b60405180910390fd5b80600560008573ffffffffffffffffffffffffffffffffffffffff1673ffffffffffffffffffffffffffffffffffffffff16815260200190815260200160002060008473ffffffffffffffffffffffffffffffffffffffff1673ffffffffffffffffffffffffffffffffffffffff16815260200190815260200160002060006101000a81548160ff0219169083151502179055508173ffffffffffffffffffffffffffffffffffffffff168373ffffffffffffffffffffffffffffffffffffffff167f17307eab39ab6107e8899845ad3d59bd9653f200f220920489ca2b5937696c318360405161124c9190611f24565b60405180910390a3505050565b611264848484610e85565b611270848484846113bd565b6112af576040517f08c379a00000000000000000000000000000000000000000000000000000000081526004016112a690611f61565b60405180910390fd5b50505050565b60008073ffffffffffffffffffffffffffffffffffffffff166002600084815260200190815260200160002060009054906101000a900473ffffffffffffffffffffffffffffffffffffffff1673ffffffffffffffffffffffffffffffffffffffff1614159050919050565b61133b828260405180602001604052806000815250611554565b5050565b611348826112b5565b611387576040517f08c379a000000000000000000000000000000000000000000000000000000000815260040161137e90612061565b60405180910390fd5b806008600084815260200190815260200160002090805190602001906113ae9291906117ac565b505050565b505050565b505050565b60006113de8473ffffffffffffffffffffffffffffffffffffffff166115af565b15611547578373ffffffffffffffffffffffffffffffffffffffff1663150b7a02611407610d2f565b8786866040518563ffffffff1660e01b81526004016114299493929190611ed8565b602060405180830381600087803b15801561144357600080fd5b505af192505050801561147457506040513d601f19601f820116820180604052508101906114719190611bab565b60015b6114f7573d80600081146114a4576040519150601f19603f3d011682016040523d82523d6000602084013e6114a9565b606091505b506000815114156114ef576040517f08c379a00000000000000000000000000000000000000000000000000000000081526004016114e690611f61565b60405180910390fd5b805181602001fd5b63150b7a0260e01b7bffffffffffffffffffffffffffffffffffffffffffffffffffffffff1916817bffffffffffffffffffffffffffffffffffffffffffffffffffffffff19161491505061154c565b600190505b949350505050565b61155e83836115d2565b61156b60008484846113bd565b6115aa576040517f08c379a00000000000000000000000000000000000000000000000000000000081526004016115a190611f61565b60405180910390fd5b505050565b6000808273ffffffffffffffffffffffffffffffffffffffff163b119050919050565b600073ffffffffffffffffffffffffffffffffffffffff168273ffffffffffffffffffffffffffffffffffffffff161415611642576040517f08c379a000000000000000000000000000000000000000000000000000000000815260040161163990612041565b60405180910390fd5b61164b816112b5565b1561168b576040517f08c379a000000000000000000000000000000000000000000000000000000000815260040161168290611fa1565b60405180910390fd5b611697600083836113b3565b6001600360008473ffffffffffffffffffffffffffffffffffffffff1673ffffffffffffffffffffffffffffffffffffffff16815260200190815260200160002060008282546116e791906121bb565b92505081905550816002600083815260200190815260200160002060006101000a81548173ffffffffffffffffffffffffffffffffffffffff021916908373ffffffffffffffffffffffffffffffffffffffff160217905550808273ffffffffffffffffffffffffffffffffffffffff16600073ffffffffffffffffffffffffffffffffffffffff167fddf252ad1be2c89b69c2b068fc378daa952ba7f163c4a11628f55a4df523b3ef60405160405180910390a46117a8600083836113b8565b5050565b8280546117b89061230d565b90600052602060002090601f0160209004810192826117da5760008555611821565b82601f106117f357805160ff1916838001178555611821565b82800160010185558215611821579182015b82811115611820578251825591602001919060010190611805565b5b50905061182e9190611832565b5090565b5b8082111561184b576000816000905550600101611833565b5090565b600061186261185d84612121565b6120fc565b90508281526020810184848401111561187a57600080fd5b6118858482856122cb565b509392505050565b60006118a061189b84612152565b6120fc565b9050828152602081018484840111156118b857600080fd5b6118c38482856122cb565b509392505050565b6000813590506118da81612773565b92915050565b6000815190506118ef81612773565b92915050565b6000813590506119048161278a565b92915050565b600081359050611919816127a1565b92915050565b60008151905061192e816127a1565b92915050565b600082601f83011261194557600080fd5b813561195584826020860161184f565b91505092915050565b60008135905061196d816127b8565b92915050565b600082601f83011261198457600080fd5b813561199484826020860161188d565b91505092915050565b6000813590506119ac816127cf565b92915050565b6000602082840312156119c457600080fd5b60006119d2848285016118cb565b91505092915050565b6000602082840312156119ed57600080fd5b60006119fb848285016118e0565b91505092915050565b60008060408385031215611a1757600080fd5b6000611a25858286016118cb565b9250506020611a36858286016118cb565b9150509250929050565b600080600060608486031215611a5557600080fd5b6000611a63868287016118cb565b9350506020611a74868287016118cb565b9250506040611a858682870161199d565b9150509250925092565b60008060008060808587031215611aa557600080fd5b6000611ab3878288016118cb565b9450506020611ac4878288016118cb565b9350506040611ad58782880161199d565b925050606085013567ffffffffffffffff811115611af257600080fd5b611afe87828801611934565b91505092959194509250565b60008060408385031215611b1d57600080fd5b6000611b2b858286016118cb565b9250506020611b3c858286016118f5565b9150509250929050565b60008060408385031215611b5957600080fd5b6000611b67858286016118cb565b9250506020611b788582860161199d565b9150509250929050565b600060208284031215611b9457600080fd5b6000611ba28482850161190a565b91505092915050565b600060208284031215611bbd57600080fd5b6000611bcb8482850161191f565b91505092915050565b60008060408385031215611be757600080fd5b6000611bf58582860161195e565b9250506020611c068582860161199d565b9150509250929050565b600060208284031215611c2257600080fd5b600082013567ffffffffffffffff811115611c3c57600080fd5b611c4884828501611973565b91505092915050565b600060208284031215611c6357600080fd5b6000611c718482850161199d565b91505092915050565b611c8381612245565b82525050565b611c9281612257565b82525050565b6000611ca382612183565b611cad8185612199565b9350611cbd8185602086016122da565b611cc681612446565b840191505092915050565b6000611cdc8261218e565b611ce681856121aa565b9350611cf68185602086016122da565b611cff81612446565b840191505092915050565b6000611d176032836121aa565b9150611d2282612457565b604082019050919050565b6000611d3a6025836121aa565b9150611d45826124a6565b604082019050919050565b6000611d5d601c836121aa565b9150611d68826124f5565b602082019050919050565b6000611d806024836121aa565b9150611d8b8261251e565b604082019050919050565b6000611da36019836121aa565b9150611dae8261256d565b602082019050919050565b6000611dc66029836121aa565b9150611dd182612596565b604082019050919050565b6000611de9603e836121aa565b9150611df4826125e5565b604082019050919050565b6000611e0c6020836121aa565b9150611e1782612634565b602082019050919050565b6000611e2f602c836121aa565b9150611e3a8261265d565b604082019050919050565b6000611e526018836121aa565b9150611e5d826126ac565b602082019050919050565b6000611e756021836121aa565b9150611e80826126d5565b604082019050919050565b6000611e98602e836121aa565b9150611ea382612724565b604082019050919050565b611eb7816122c1565b82525050565b6000602082019050611ed26000830184611c7a565b92915050565b6000608082019050611eed6000830187611c7a565b611efa6020830186611c7a565b611f076040830185611eae565b8181036060830152611f198184611c98565b905095945050505050565b6000602082019050611f396000830184611c89565b92915050565b60006020820190508181036000830152611f598184611cd1565b905092915050565b60006020820190508181036000830152611f7a81611d0a565b9050919050565b60006020820190508181036000830152611f9a81611d2d565b9050919050565b60006020820190508181036000830152611fba81611d50565b9050919050565b60006020820190508181036000830152611fda81611d73565b9050919050565b60006020820190508181036000830152611ffa81611d96565b9050919050565b6000602082019050818103600083015261201a81611db9565b9050919050565b6000602082019050818103600083015261203a81611ddc565b9050919050565b6000602082019050818103600083015261205a81611dff565b9050919050565b6000602082019050818103600083015261207a81611e22565b9050919050565b6000602082019050818103600083015261209a81611e45565b9050919050565b600060208201905081810360008301526120ba81611e68565b9050919050565b600060208201905081810360008301526120da81611e8b565b9050919050565b60006020820190506120f66000830184611eae565b92915050565b6000612106612117565b9050612112828261233f565b919050565b6000604051905090565b600067ffffffffffffffff82111561213c5761213b612417565b5b61214582612446565b9050602081019050919050565b600067ffffffffffffffff82111561216d5761216c612417565b5b61217682612446565b9050602081019050919050565b600081519050919050565b600081519050919050565b600082825260208201905092915050565b600082825260208201905092915050565b60006121c6826122c1565b91506121d1836122c1565b9250827fffffffffffffffffffffffffffffffffffffffffffffffffffffffffffffffff03821115612206576122056123b9565b5b828201905092915050565b600061221c826122c1565b9150612227836122c1565b92508282101561223a576122396123b9565b5b828203905092915050565b6000612250826122a1565b9050919050565b60008115159050919050565b60007fffffffff0000000000000000000000000000000000000000000000000000000082169050919050565b600061229a82612245565b9050919050565b600073ffffffffffffffffffffffffffffffffffffffff82169050919050565b6000819050919050565b82818337600083830152505050565b60005b838110156122f85780820151818401526020810190506122dd565b83811115612307576000848401525b50505050565b6000600282049050600182168061232557607f821691505b60208210811415612339576123386123e8565b5b50919050565b61234882612446565b810181811067ffffffffffffffff8211171561236757612366612417565b5b80604052505050565b600061237b826122c1565b91507fffffffffffffffffffffffffffffffffffffffffffffffffffffffffffffffff8214156123ae576123ad6123b9565b5b600182019050919050565b7f4e487b7100000000000000000000000000000000000000000000000000000000600052601160045260246000fd5b7f4e487b7100000000000000000000000000000000000000000000000000000000600052602260045260246000fd5b7f4e487b7100000000000000000000000000000000000000000000000000000000600052604160045260246000fd5b6000601f19601f8301169050919050565b7f4552433732313a207472616e7366657220746f206e6f6e20455243373231526560008201527f63656976657220696d706c656d656e7465720000000000000000000000000000602082015250565b7f4552433732313a207472616e736665722066726f6d20696e636f72726563742060008201527f6f776e6572000000000000000000000000000000000000000000000000000000602082015250565b7f4552433732313a20746f6b656e20616c7265616479206d696e74656400000000600082015250565b7f4552433732313a207472616e7366657220746f20746865207a65726f2061646460008201527f7265737300000000000000000000000000000000000000000000000000000000602082015250565b7f4552433732313a20617070726f766520746f2063616c6c657200000000000000600082015250565b7f4552433732313a2061646472657373207a65726f206973206e6f74206120766160008201527f6c6964206f776e65720000000000000000000000000000000000000000000000602082015250565b7f4552433732313a20617070726f76652063616c6c6572206973206e6f7420746f60008201527f6b656e206f776e6572206e6f7220617070726f76656420666f7220616c6c0000602082015250565b7f4552433732313a206d696e7420746f20746865207a65726f2061646472657373600082015250565b7f4552433732314d657461646174613a2055524920736574206f66206e6f6e657860008201527f697374656e7420746f6b656e0000000000000000000000000000000000000000602082015250565b7f4552433732313a20696e76616c696420746f6b656e2049440000000000000000600082015250565b7f4552433732313a20617070726f76616c20746f2063757272656e74206f776e6560008201527f7200000000000000000000000000000000000000000000000000000000000000602082015250565b7f4552433732313a2063616c6c6572206973206e6f7420746f6b656e206f776e6560008201527f72206e6f7220617070726f766564000000000000000000000000000000000000602082015250565b61277c81612245565b811461278757600080fd5b50565b61279381612257565b811461279e57600080fd5b50565b6127aa81612263565b81146127b557600080fd5b50565b6127c18161228f565b81146127cc57600080fd5b50565b6127d8816122c1565b81146127e357600080fd5b5056fea264697066735822122053571dcd1c626822aa7c5607efd134c252c66f1add236c45da255126a7bd017964736f6c63430008040033",
  "linkReferences": {},
  "deployedLinkReferences": {}
}