{
  "_format": "hh-sol-artifact-1",
  "contractName": "NFTContract",
  "sourceName": "contracts/artWork.sol",
  "abi": [
    {
      "inputs": [
        {
          "internalType": "string",
          "name": "name",
          "type": "string"
        },
        {
          "internalType": "string",
          "name": "symbol",
          "type": "string"
        }
      ],
      "stateMutability": "nonpayable",
      "type": "constructor"
    },
    {
      "anonymous": false,
      "inputs": [
        {
          "indexed": true,
          "internalType": "address",
          "name": "owner",
          "type": "address"
        },
        {
          "indexed": true,
          "internalType": "address",
          "name": "approved",
          "type": "address"
        },
        {
          "indexed": true,
          "internalType": "uint256",
          "name": "tokenId",
          "type": "uint256"
        }
      ],
      "name": "Approval",
      "type": "event"
    },
    {
      "anonymous": false,
      "inputs": [
        {
          "indexed": true,
          "internalType": "address",
          "name": "owner",
          "type": "address"
        },
        {
          "indexed": true,
          "internalType": "address",
          "name": "operator",
          "type": "address"
        },
        {
          "indexed": false,
          "internalType": "bool",
          "name": "approved",
          "type": "bool"
        }
      ],
      "name": "ApprovalForAll",
      "type": "event"
    },
    {
      "anonymous": false,
      "inputs": [
        {
          "indexed": true,
          "internalType": "address",
          "name": "from",
          "type": "address"
        },
        {
          "indexed": true,
          "internalType": "address",
          "name": "to",
          "type": "address"
        },
        {
          "indexed": true,
          "internalType": "uint256",
          "name": "tokenId",
          "type": "uint256"
        }
      ],
      "name": "Transfer",
      "type": "event"
    },
    {
      "inputs": [
        {
          "internalType": "address",
          "name": "to",
          "type": "address"
        },
        {
          "internalType": "uint256",
          "name": "tokenId",
          "type": "uint256"
        }
      ],
      "name": "approve",
      "outputs": [],
      "stateMutability": "nonpayable",
      "type": "function"
    },
    {
      "inputs": [
        {
          "internalType": "contract IERC721",
          "name": "nft",
          "type": "address"
        },
        {
          "internalType": "uint256",
          "name": "_tokenId",
          "type": "uint256"
        },
        {
          "internalType": "address",
          "name": "_seller",
          "type": "address"
        },
        {
          "internalType": "address",
          "name": "_buyer",
          "type": "address"
        }
      ],
      "name": "approveAndTransfer",
      "outputs": [],
      "stateMutability": "nonpayable",
      "type": "function"
    },
    {
      "inputs": [
        {
          "internalType": "address",
          "name": "owner",
          "type": "address"
        }
      ],
      "name": "balanceOf",
      "outputs": [
        {
          "internalType": "uint256",
          "name": "",
          "type": "uint256"
        }
      ],
      "stateMutability": "view",
      "type": "function"
    },
    {
      "inputs": [
        {
          "internalType": "uint256",
          "name": "tokenId",
          "type": "uint256"
        }
      ],
      "name": "getApproved",
      "outputs": [
        {
          "internalType": "address",
          "name": "",
          "type": "address"
        }
      ],
      "stateMutability": "view",
      "type": "function"
    },
    {
      "inputs": [
        {
          "internalType": "address",
          "name": "owner",
          "type": "address"
        },
        {
          "internalType": "address",
          "name": "operator",
          "type": "address"
        }
      ],
      "name": "isApprovedForAll",
      "outputs": [
        {
          "internalType": "bool",
          "name": "",
          "type": "bool"
        }
      ],
      "stateMutability": "view",
      "type": "function"
    },
    {
      "inputs": [
        {
          "internalType": "string",
          "name": "_tokenURI",
          "type": "string"
        }
      ],
      "name": "mint",
      "outputs": [
        {
          "internalType": "uint256",
          "name": "",
          "type": "uint256"
        }
      ],
      "stateMutability": "nonpayable",
      "type": "function"
    },
    {
      "inputs": [],
      "name": "name",
      "outputs": [
        {
          "internalType": "string",
          "name": "",
          "type": "string"
        }
      ],
      "stateMutability": "view",
      "type": "function"
    },
    {
      "inputs": [
        {
          "internalType": "uint256",
          "name": "tokenId",
          "type": "uint256"
        }
      ],
      "name": "ownerOf",
      "outputs": [
        {
          "internalType": "address",
          "name": "",
          "type": "address"
        }
      ],
      "stateMutability": "view",
      "type": "function"
    },
    {
      "inputs": [
        {
          "internalType": "address",
          "name": "from",
          "type": "address"
        },
        {
          "internalType": "address",
          "name": "to",
          "type": "address"
        },
        {
          "internalType": "uint256",
          "name": "tokenId",
          "type": "uint256"
        }
      ],
      "name": "safeTransferFrom",
      "outputs": [],
      "stateMutability": "nonpayable",
      "type": "function"
    },
    {
      "inputs": [
        {
          "internalType": "address",
          "name": "from",
          "type": "address"
        },
        {
          "internalType": "address",
          "name": "to",
          "type": "address"
        },
        {
          "internalType": "uint256",
          "name": "tokenId",
          "type": "uint256"
        },
        {
          "internalType": "bytes",
          "name": "data",
          "type": "bytes"
        }
      ],
      "name": "safeTransferFrom",
      "outputs": [],
      "stateMutability": "nonpayable",
      "type": "function"
    },
    {
      "inputs": [
        {
          "internalType": "address",
          "name": "operator",
          "type": "address"
        },
        {
          "internalType": "bool",
          "name": "approved",
          "type": "bool"
        }
      ],
      "name": "setApprovalForAll",
      "outputs": [],
      "stateMutability": "nonpayable",
      "type": "function"
    },
    {
      "inputs": [
        {
          "internalType": "bytes4",
          "name": "interfaceId",
          "type": "bytes4"
        }
      ],
      "name": "supportsInterface",
      "outputs": [
        {
          "internalType": "bool",
          "name": "",
          "type": "bool"
        }
      ],
      "stateMutability": "view",
      "type": "function"
    },
    {
      "inputs": [],
      "name": "symbol",
      "outputs": [
        {
          "internalType": "string",
          "name": "",
          "type": "string"
        }
      ],
      "stateMutability": "view",
      "type": "function"
    },
    {
      "inputs": [],
      "name": "tokenCounter",
      "outputs": [
        {
          "internalType": "uint256",
          "name": "",
          "type": "uint256"
        }
      ],
      "stateMutability": "view",
      "type": "function"
    },
    {
      "inputs": [
        {
          "internalType": "uint256",
          "name": "_tokenId",
          "type": "uint256"
        }
      ],
      "name": "tokenURI",
      "outputs": [
        {
          "internalType": "string",
          "name": "",
          "type": "string"
        }
      ],
      "stateMutability": "view",
      "type": "function"
    },
    {
      "inputs": [
        {
          "internalType": "address",
          "name": "from",
          "type": "address"
        },
        {
          "internalType": "address",
          "name": "to",
          "type": "address"
        },
        {
          "internalType": "uint256",
          "name": "tokenId",
          "type": "uint256"
        }
      ],
      "name": "transferFrom",
      "outputs": [],
      "stateMutability": "nonpayable",
      "type": "function"
    }
  ],
  "bytecode": "0x60806040523480156200001157600080fd5b5060405162002d3438038062002d34833981810160405281019062000037919062000197565b818181600090805190602001906200005192919062000075565b5080600190805190602001906200006a92919062000075565b50505050506200037a565b82805462000083906200029f565b90600052602060002090601f016020900481019282620000a75760008555620000f3565b82601f10620000c257805160ff1916838001178555620000f3565b82800160010185558215620000f3579182015b82811115620000f2578251825591602001919060010190620000d5565b5b50905062000102919062000106565b5090565b5b808211156200012157600081600090555060010162000107565b5090565b60006200013c620001368462000233565b6200020a565b9050828152602081018484840111156200015557600080fd5b6200016284828562000269565b509392505050565b600082601f8301126200017c57600080fd5b81516200018e84826020860162000125565b91505092915050565b60008060408385031215620001ab57600080fd5b600083015167ffffffffffffffff811115620001c657600080fd5b620001d4858286016200016a565b925050602083015167ffffffffffffffff811115620001f257600080fd5b62000200858286016200016a565b9150509250929050565b60006200021662000229565b9050620002248282620002d5565b919050565b6000604051905090565b600067ffffffffffffffff8211156200025157620002506200033a565b5b6200025c8262000369565b9050602081019050919050565b60005b83811015620002895780820151818401526020810190506200026c565b8381111562000299576000848401525b50505050565b60006002820490506001821680620002b857607f821691505b60208210811415620002cf57620002ce6200030b565b5b50919050565b620002e08262000369565b810181811067ffffffffffffffff821117156200030257620003016200033a565b5b80604052505050565b7f4e487b7100000000000000000000000000000000000000000000000000000000600052602260045260246000fd5b7f4e487b7100000000000000000000000000000000000000000000000000000000600052604160045260246000fd5b6000601f19601f8301169050919050565b6129aa806200038a6000396000f3fe608060405234801561001057600080fd5b50600436106101005760003560e01c806395d89b4111610097578063d082e38111610066578063d082e381146102bd578063d85d3d27146102db578063e985e9c51461030b578063f5a8b6621461033b57610100565b806395d89b4114610237578063a22cb46514610255578063b88d4fde14610271578063c87b56dd1461028d57610100565b806323b872dd116100d357806323b872dd1461019f57806342842e0e146101bb5780636352211e146101d757806370a082311461020757610100565b806301ffc9a71461010557806306fdde0314610135578063081812fc14610153578063095ea7b314610183575b600080fd5b61011f600480360381019061011a9190611c1d565b610357565b60405161012c9190612069565b60405180910390f35b61013d610439565b60405161014a9190612084565b60405180910390f35b61016d60048036038101906101689190611d13565b6104cb565b60405161017a9190611fa2565b60405180910390f35b61019d60048036038101906101989190611bb8565b610511565b005b6101b960048036038101906101b49190611ab2565b610629565b005b6101d560048036038101906101d09190611ab2565b610689565b005b6101f160048036038101906101ec9190611d13565b6106a9565b6040516101fe9190611fa2565b60405180910390f35b610221600480360381019061021c9190611a24565b61075b565b60405161022e9190612246565b60405180910390f35b61023f610813565b60405161024c9190612084565b60405180910390f35b61026f600480360381019061026a9190611b7c565b6108a5565b005b61028b60048036038101906102869190611b01565b6108bb565b005b6102a760048036038101906102a29190611d13565b61091d565b6040516102b49190612084565b60405180910390f35b6102c5610a0a565b6040516102d29190612246565b60405180910390f35b6102f560048036038101906102f09190611cd2565b610a10565b6040516103029190612246565b60405180910390f35b61032560048036038101906103209190611a76565b610a4c565b6040516103329190612069565b60405180910390f35b61035560048036038101906103509190611c6f565b610ae0565b005b60007f80ac58cd000000000000000000000000000000000000000000000000000000007bffffffffffffffffffffffffffffffffffffffffffffffffffffffff1916827bffffffffffffffffffffffffffffffffffffffffffffffffffffffff1916148061042257507f5b5e139f000000000000000000000000000000000000000000000000000000007bffffffffffffffffffffffffffffffffffffffffffffffffffffffff1916827bffffffffffffffffffffffffffffffffffffffffffffffffffffffff1916145b80610432575061043182610cd7565b5b9050919050565b60606000805461044890612472565b80601f016020809104026020016040519081016040528092919081815260200182805461047490612472565b80156104c15780601f10610496576101008083540402835291602001916104c1565b820191906000526020600020905b8154815290600101906020018083116104a457829003601f168201915b5050505050905090565b60006104d682610d41565b6004600083815260200190815260200160002060009054906101000a900473ffffffffffffffffffffffffffffffffffffffff169050919050565b600061051c826106a9565b90508073ffffffffffffffffffffffffffffffffffffffff168373ffffffffffffffffffffffffffffffffffffffff16141561058d576040517f08c379a0000000000000000000000000000000000000000000000000000000008152600401610584906121e6565b60405180910390fd5b8073ffffffffffffffffffffffffffffffffffffffff166105ac610d8c565b73ffffffffffffffffffffffffffffffffffffffff1614806105db57506105da816105d5610d8c565b610a4c565b5b61061a576040517f08c379a000000000000000000000000000000000000000000000000000000000815260040161061190612166565b60405180910390fd5b6106248383610d94565b505050565b61063a610634610d8c565b82610e4d565b610679576040517f08c379a000000000000000000000000000000000000000000000000000000000815260040161067090612226565b60405180910390fd5b610684838383610ee2565b505050565b6106a4838383604051806020016040528060008152506108bb565b505050565b6000806002600084815260200190815260200160002060009054906101000a900473ffffffffffffffffffffffffffffffffffffffff169050600073ffffffffffffffffffffffffffffffffffffffff168173ffffffffffffffffffffffffffffffffffffffff161415610752576040517f08c379a0000000000000000000000000000000000000000000000000000000008152600401610749906121c6565b60405180910390fd5b80915050919050565b60008073ffffffffffffffffffffffffffffffffffffffff168273ffffffffffffffffffffffffffffffffffffffff1614156107cc576040517f08c379a00000000000000000000000000000000000000000000000000000000081526004016107c390612146565b60405180910390fd5b600360008373ffffffffffffffffffffffffffffffffffffffff1673ffffffffffffffffffffffffffffffffffffffff168152602001908152602001600020549050919050565b60606001805461082290612472565b80601f016020809104026020016040519081016040528092919081815260200182805461084e90612472565b801561089b5780601f106108705761010080835404028352916020019161089b565b820191906000526020600020905b81548152906001019060200180831161087e57829003601f168201915b5050505050905090565b6108b76108b0610d8c565b8383611149565b5050565b6108cc6108c6610d8c565b83610e4d565b61090b576040517f08c379a000000000000000000000000000000000000000000000000000000000815260040161090290612226565b60405180910390fd5b610917848484846112b6565b50505050565b606061092882611312565b610967576040517f08c379a000000000000000000000000000000000000000000000000000000000815260040161095e906121a6565b60405180910390fd5b60086000838152602001908152602001600020805461098590612472565b80601f01602080910402602001604051908101604052809291908181526020018280546109b190612472565b80156109fe5780601f106109d3576101008083540402835291602001916109fe565b820191906000526020600020905b8154815290600101906020018083116109e157829003601f168201915b50505050509050919050565b60075481565b600060076000815480929190610a25906124d5565b9190505550610a363360075461137e565b610a426007548361139c565b6007549050919050565b6000600560008473ffffffffffffffffffffffffffffffffffffffff1673ffffffffffffffffffffffffffffffffffffffff16815260200190815260200160002060008373ffffffffffffffffffffffffffffffffffffffff1673ffffffffffffffffffffffffffffffffffffffff16815260200190815260200160002060009054906101000a900460ff16905092915050565b8173ffffffffffffffffffffffffffffffffffffffff168473ffffffffffffffffffffffffffffffffffffffff16636352211e856040518263ffffffff1660e01b8152600401610b309190612246565b60206040518083038186803b158015610b4857600080fd5b505afa158015610b5c573d6000803e3d6000fd5b505050506040513d601f19601f82011682018060405250810190610b809190611a4d565b73ffffffffffffffffffffffffffffffffffffffff1614610bd6576040517f08c379a0000000000000000000000000000000000000000000000000000000008152600401610bcd90612206565b60405180910390fd5b8373ffffffffffffffffffffffffffffffffffffffff1663e985e9c582306040518363ffffffff1660e01b8152600401610c11929190611fbd565b60206040518083038186803b158015610c2957600080fd5b505afa158015610c3d573d6000803e3d6000fd5b505050506040513d601f19601f82011682018060405250810190610c619190611bf4565b508373ffffffffffffffffffffffffffffffffffffffff166342842e0e8333866040518463ffffffff1660e01b8152600401610c9f93929190611fe6565b600060405180830381600087803b158015610cb957600080fd5b505af1158015610ccd573d6000803e3d6000fd5b5050505050505050565b60007f01ffc9a7000000000000000000000000000000000000000000000000000000007bffffffffffffffffffffffffffffffffffffffffffffffffffffffff1916827bffffffffffffffffffffffffffffffffffffffffffffffffffffffff1916149050919050565b610d4a81611312565b610d89576040517f08c379a0000000000000000000000000000000000000000000000000000000008152600401610d80906121c6565b60405180910390fd5b50565b600033905090565b816004600083815260200190815260200160002060006101000a81548173ffffffffffffffffffffffffffffffffffffffff021916908373ffffffffffffffffffffffffffffffffffffffff160217905550808273ffffffffffffffffffffffffffffffffffffffff16610e07836106a9565b73ffffffffffffffffffffffffffffffffffffffff167f8c5be1e5ebec7d5bd14f71427d1e84f3dd0314c0f7b2291e5b200ac8c7c3b92560405160405180910390a45050565b600080610e59836106a9565b90508073ffffffffffffffffffffffffffffffffffffffff168473ffffffffffffffffffffffffffffffffffffffff161480610e9b5750610e9a8185610a4c565b5b80610ed957508373ffffffffffffffffffffffffffffffffffffffff16610ec1846104cb565b73ffffffffffffffffffffffffffffffffffffffff16145b91505092915050565b8273ffffffffffffffffffffffffffffffffffffffff16610f02826106a9565b73ffffffffffffffffffffffffffffffffffffffff1614610f58576040517f08c379a0000000000000000000000000000000000000000000000000000000008152600401610f4f906120c6565b60405180910390fd5b600073ffffffffffffffffffffffffffffffffffffffff168273ffffffffffffffffffffffffffffffffffffffff161415610fc8576040517f08c379a0000000000000000000000000000000000000000000000000000000008152600401610fbf90612106565b60405180910390fd5b610fd3838383611410565b610fde600082610d94565b6001600360008573ffffffffffffffffffffffffffffffffffffffff1673ffffffffffffffffffffffffffffffffffffffff168152602001908152602001600020600082825461102e9190612376565b925050819055506001600360008473ffffffffffffffffffffffffffffffffffffffff1673ffffffffffffffffffffffffffffffffffffffff16815260200190815260200160002060008282546110859190612320565b92505081905550816002600083815260200190815260200160002060006101000a81548173ffffffffffffffffffffffffffffffffffffffff021916908373ffffffffffffffffffffffffffffffffffffffff160217905550808273ffffffffffffffffffffffffffffffffffffffff168473ffffffffffffffffffffffffffffffffffffffff167fddf252ad1be2c89b69c2b068fc378daa952ba7f163c4a11628f55a4df523b3ef60405160405180910390a4611144838383611415565b505050565b8173ffffffffffffffffffffffffffffffffffffffff168373ffffffffffffffffffffffffffffffffffffffff1614156111b8576040517f08c379a00000000000000000000000000000000000000000000000000000000081526004016111af90612126565b60405180910390fd5b80600560008573ffffffffffffffffffffffffffffffffffffffff1673ffffffffffffffffffffffffffffffffffffffff16815260200190815260200160002060008473ffffffffffffffffffffffffffffffffffffffff1673ffffffffffffffffffffffffffffffffffffffff16815260200190815260200160002060006101000a81548160ff0219169083151502179055508173ffffffffffffffffffffffffffffffffffffffff168373ffffffffffffffffffffffffffffffffffffffff167f17307eab39ab6107e8899845ad3d59bd9653f200f220920489ca2b5937696c31836040516112a99190612069565b60405180910390a3505050565b6112c1848484610ee2565b6112cd8484848461141a565b61130c576040517f08c379a0000000000000000000000000000000000000000000000000000000008152600401611303906120a6565b60405180910390fd5b50505050565b60008073ffffffffffffffffffffffffffffffffffffffff166002600084815260200190815260200160002060009054906101000a900473ffffffffffffffffffffffffffffffffffffffff1673ffffffffffffffffffffffffffffffffffffffff1614159050919050565b6113988282604051806020016040528060008152506115b1565b5050565b6113a582611312565b6113e4576040517f08c379a00000000000000000000000000000000000000000000000000000000081526004016113db906121a6565b60405180910390fd5b8060086000848152602001908152602001600020908051906020019061140b929190611809565b505050565b505050565b505050565b600061143b8473ffffffffffffffffffffffffffffffffffffffff1661160c565b156115a4578373ffffffffffffffffffffffffffffffffffffffff1663150b7a02611464610d8c565b8786866040518563ffffffff1660e01b8152600401611486949392919061201d565b602060405180830381600087803b1580156114a057600080fd5b505af19250505080156114d157506040513d601f19601f820116820180604052508101906114ce9190611c46565b60015b611554573d8060008114611501576040519150601f19603f3d011682016040523d82523d6000602084013e611506565b606091505b5060008151141561154c576040517f08c379a0000000000000000000000000000000000000000000000000000000008152600401611543906120a6565b60405180910390fd5b805181602001fd5b63150b7a0260e01b7bffffffffffffffffffffffffffffffffffffffffffffffffffffffff1916817bffffffffffffffffffffffffffffffffffffffffffffffffffffffff1916149150506115a9565b600190505b949350505050565b6115bb838361162f565b6115c8600084848461141a565b611607576040517f08c379a00000000000000000000000000000000000000000000000000000000081526004016115fe906120a6565b60405180910390fd5b505050565b6000808273ffffffffffffffffffffffffffffffffffffffff163b119050919050565b600073ffffffffffffffffffffffffffffffffffffffff168273ffffffffffffffffffffffffffffffffffffffff16141561169f576040517f08c379a000000000000000000000000000000000000000000000000000000000815260040161169690612186565b60405180910390fd5b6116a881611312565b156116e8576040517f08c379a00000000000000000000000000000000000000000000000000000000081526004016116df906120e6565b60405180910390fd5b6116f460008383611410565b6001600360008473ffffffffffffffffffffffffffffffffffffffff1673ffffffffffffffffffffffffffffffffffffffff16815260200190815260200160002060008282546117449190612320565b92505081905550816002600083815260200190815260200160002060006101000a81548173ffffffffffffffffffffffffffffffffffffffff021916908373ffffffffffffffffffffffffffffffffffffffff160217905550808273ffffffffffffffffffffffffffffffffffffffff16600073ffffffffffffffffffffffffffffffffffffffff167fddf252ad1be2c89b69c2b068fc378daa952ba7f163c4a11628f55a4df523b3ef60405160405180910390a461180560008383611415565b5050565b82805461181590612472565b90600052602060002090601f016020900481019282611837576000855561187e565b82601f1061185057805160ff191683800117855561187e565b8280016001018555821561187e579182015b8281111561187d578251825591602001919060010190611862565b5b50905061188b919061188f565b5090565b5b808211156118a8576000816000905550600101611890565b5090565b60006118bf6118ba84612286565b612261565b9050828152602081018484840111156118d757600080fd5b6118e2848285612430565b509392505050565b60006118fd6118f8846122b7565b612261565b90508281526020810184848401111561191557600080fd5b611920848285612430565b509392505050565b60008135905061193781612901565b92915050565b60008151905061194c81612901565b92915050565b60008135905061196181612918565b92915050565b60008151905061197681612918565b92915050565b60008135905061198b8161292f565b92915050565b6000815190506119a08161292f565b92915050565b600082601f8301126119b757600080fd5b81356119c78482602086016118ac565b91505092915050565b6000813590506119df81612946565b92915050565b600082601f8301126119f657600080fd5b8135611a068482602086016118ea565b91505092915050565b600081359050611a1e8161295d565b92915050565b600060208284031215611a3657600080fd5b6000611a4484828501611928565b91505092915050565b600060208284031215611a5f57600080fd5b6000611a6d8482850161193d565b91505092915050565b60008060408385031215611a8957600080fd5b6000611a9785828601611928565b9250506020611aa885828601611928565b9150509250929050565b600080600060608486031215611ac757600080fd5b6000611ad586828701611928565b9350506020611ae686828701611928565b9250506040611af786828701611a0f565b9150509250925092565b60008060008060808587031215611b1757600080fd5b6000611b2587828801611928565b9450506020611b3687828801611928565b9350506040611b4787828801611a0f565b925050606085013567ffffffffffffffff811115611b6457600080fd5b611b70878288016119a6565b91505092959194509250565b60008060408385031215611b8f57600080fd5b6000611b9d85828601611928565b9250506020611bae85828601611952565b9150509250929050565b60008060408385031215611bcb57600080fd5b6000611bd985828601611928565b9250506020611bea85828601611a0f565b9150509250929050565b600060208284031215611c0657600080fd5b6000611c1484828501611967565b91505092915050565b600060208284031215611c2f57600080fd5b6000611c3d8482850161197c565b91505092915050565b600060208284031215611c5857600080fd5b6000611c6684828501611991565b91505092915050565b60008060008060808587031215611c8557600080fd5b6000611c93878288016119d0565b9450506020611ca487828801611a0f565b9350506040611cb587828801611928565b9250506060611cc687828801611928565b91505092959194509250565b600060208284031215611ce457600080fd5b600082013567ffffffffffffffff811115611cfe57600080fd5b611d0a848285016119e5565b91505092915050565b600060208284031215611d2557600080fd5b6000611d3384828501611a0f565b91505092915050565b611d45816123aa565b82525050565b611d54816123bc565b82525050565b6000611d65826122e8565b611d6f81856122fe565b9350611d7f81856020860161243f565b611d88816125ab565b840191505092915050565b6000611d9e826122f3565b611da8818561230f565b9350611db881856020860161243f565b611dc1816125ab565b840191505092915050565b6000611dd960328361230f565b9150611de4826125bc565b604082019050919050565b6000611dfc60258361230f565b9150611e078261260b565b604082019050919050565b6000611e1f601c8361230f565b9150611e2a8261265a565b602082019050919050565b6000611e4260248361230f565b9150611e4d82612683565b604082019050919050565b6000611e6560198361230f565b9150611e70826126d2565b602082019050919050565b6000611e8860298361230f565b9150611e93826126fb565b604082019050919050565b6000611eab603e8361230f565b9150611eb68261274a565b604082019050919050565b6000611ece60208361230f565b9150611ed982612799565b602082019050919050565b6000611ef1602c8361230f565b9150611efc826127c2565b604082019050919050565b6000611f1460188361230f565b9150611f1f82612811565b602082019050919050565b6000611f3760218361230f565b9150611f428261283a565b604082019050919050565b6000611f5a60098361230f565b9150611f6582612889565b602082019050919050565b6000611f7d602e8361230f565b9150611f88826128b2565b604082019050919050565b611f9c81612426565b82525050565b6000602082019050611fb76000830184611d3c565b92915050565b6000604082019050611fd26000830185611d3c565b611fdf6020830184611d3c565b9392505050565b6000606082019050611ffb6000830186611d3c565b6120086020830185611d3c565b6120156040830184611f93565b949350505050565b60006080820190506120326000830187611d3c565b61203f6020830186611d3c565b61204c6040830185611f93565b818103606083015261205e8184611d5a565b905095945050505050565b600060208201905061207e6000830184611d4b565b92915050565b6000602082019050818103600083015261209e8184611d93565b905092915050565b600060208201905081810360008301526120bf81611dcc565b9050919050565b600060208201905081810360008301526120df81611def565b9050919050565b600060208201905081810360008301526120ff81611e12565b9050919050565b6000602082019050818103600083015261211f81611e35565b9050919050565b6000602082019050818103600083015261213f81611e58565b9050919050565b6000602082019050818103600083015261215f81611e7b565b9050919050565b6000602082019050818103600083015261217f81611e9e565b9050919050565b6000602082019050818103600083015261219f81611ec1565b9050919050565b600060208201905081810360008301526121bf81611ee4565b9050919050565b600060208201905081810360008301526121df81611f07565b9050919050565b600060208201905081810360008301526121ff81611f2a565b9050919050565b6000602082019050818103600083015261221f81611f4d565b9050919050565b6000602082019050818103600083015261223f81611f70565b9050919050565b600060208201905061225b6000830184611f93565b92915050565b600061226b61227c565b905061227782826124a4565b919050565b6000604051905090565b600067ffffffffffffffff8211156122a1576122a061257c565b5b6122aa826125ab565b9050602081019050919050565b600067ffffffffffffffff8211156122d2576122d161257c565b5b6122db826125ab565b9050602081019050919050565b600081519050919050565b600081519050919050565b600082825260208201905092915050565b600082825260208201905092915050565b600061232b82612426565b915061233683612426565b9250827fffffffffffffffffffffffffffffffffffffffffffffffffffffffffffffffff0382111561236b5761236a61251e565b5b828201905092915050565b600061238182612426565b915061238c83612426565b92508282101561239f5761239e61251e565b5b828203905092915050565b60006123b582612406565b9050919050565b60008115159050919050565b60007fffffffff0000000000000000000000000000000000000000000000000000000082169050919050565b60006123ff826123aa565b9050919050565b600073ffffffffffffffffffffffffffffffffffffffff82169050919050565b6000819050919050565b82818337600083830152505050565b60005b8381101561245d578082015181840152602081019050612442565b8381111561246c576000848401525b50505050565b6000600282049050600182168061248a57607f821691505b6020821081141561249e5761249d61254d565b5b50919050565b6124ad826125ab565b810181811067ffffffffffffffff821117156124cc576124cb61257c565b5b80604052505050565b60006124e082612426565b91507fffffffffffffffffffffffffffffffffffffffffffffffffffffffffffffffff8214156125135761251261251e565b5b600182019050919050565b7f4e487b7100000000000000000000000000000000000000000000000000000000600052601160045260246000fd5b7f4e487b7100000000000000000000000000000000000000000000000000000000600052602260045260246000fd5b7f4e487b7100000000000000000000000000000000000000000000000000000000600052604160045260246000fd5b6000601f19601f8301169050919050565b7f4552433732313a207472616e7366657220746f206e6f6e20455243373231526560008201527f63656976657220696d706c656d656e7465720000000000000000000000000000602082015250565b7f4552433732313a207472616e736665722066726f6d20696e636f72726563742060008201527f6f776e6572000000000000000000000000000000000000000000000000000000602082015250565b7f4552433732313a20746f6b656e20616c7265616479206d696e74656400000000600082015250565b7f4552433732313a207472616e7366657220746f20746865207a65726f2061646460008201527f7265737300000000000000000000000000000000000000000000000000000000602082015250565b7f4552433732313a20617070726f766520746f2063616c6c657200000000000000600082015250565b7f4552433732313a2061646472657373207a65726f206973206e6f74206120766160008201527f6c6964206f776e65720000000000000000000000000000000000000000000000602082015250565b7f4552433732313a20617070726f76652063616c6c6572206973206e6f7420746f60008201527f6b656e206f776e6572206e6f7220617070726f76656420666f7220616c6c0000602082015250565b7f4552433732313a206d696e7420746f20746865207a65726f2061646472657373600082015250565b7f4552433732314d657461646174613a2055524920736574206f66206e6f6e657860008201527f697374656e7420746f6b656e0000000000000000000000000000000000000000602082015250565b7f4552433732313a20696e76616c696420746f6b656e2049440000000000000000600082015250565b7f4552433732313a20617070726f76616c20746f2063757272656e74206f776e6560008201527f7200000000000000000000000000000000000000000000000000000000000000602082015250565b7f4e4f54204f574e45520000000000000000000000000000000000000000000000600082015250565b7f4552433732313a2063616c6c6572206973206e6f7420746f6b656e206f776e6560008201527f72206e6f7220617070726f766564000000000000000000000000000000000000602082015250565b61290a816123aa565b811461291557600080fd5b50565b612921816123bc565b811461292c57600080fd5b50565b612938816123c8565b811461294357600080fd5b50565b61294f816123f4565b811461295a57600080fd5b50565b61296681612426565b811461297157600080fd5b5056fea2646970667358221220a1d663af70f67f83e53bdaad169e11f11360c29c6508c6198c7f219c802ef82864736f6c63430008040033",
  "linkReferences": {},
  "deployedLinkReferences": {}
}