{
  "_format": "hh-sol-artifact-1",
  "contractName": "NFTContract",
  "sourceName": "contracts/artWork.sol",
  "abi": [
    {
      "inputs": [
        {
          "internalType": "string",
          "name": "name",
          "type": "string"
        },
        {
          "internalType": "string",
          "name": "symbol",
          "type": "string"
        }
      ],
      "stateMutability": "nonpayable",
      "type": "constructor"
    },
    {
      "anonymous": false,
      "inputs": [
        {
          "indexed": true,
          "internalType": "address",
          "name": "owner",
          "type": "address"
        },
        {
          "indexed": true,
          "internalType": "address",
          "name": "approved",
          "type": "address"
        },
        {
          "indexed": true,
          "internalType": "uint256",
          "name": "tokenId",
          "type": "uint256"
        }
      ],
      "name": "Approval",
      "type": "event"
    },
    {
      "anonymous": false,
      "inputs": [
        {
          "indexed": true,
          "internalType": "address",
          "name": "owner",
          "type": "address"
        },
        {
          "indexed": true,
          "internalType": "address",
          "name": "operator",
          "type": "address"
        },
        {
          "indexed": false,
          "internalType": "bool",
          "name": "approved",
          "type": "bool"
        }
      ],
      "name": "ApprovalForAll",
      "type": "event"
    },
    {
      "anonymous": false,
      "inputs": [
        {
          "indexed": true,
          "internalType": "address",
          "name": "from",
          "type": "address"
        },
        {
          "indexed": true,
          "internalType": "address",
          "name": "to",
          "type": "address"
        },
        {
          "indexed": true,
          "internalType": "uint256",
          "name": "tokenId",
          "type": "uint256"
        }
      ],
      "name": "Transfer",
      "type": "event"
    },
    {
      "inputs": [
        {
          "internalType": "address",
          "name": "to",
          "type": "address"
        },
        {
          "internalType": "uint256",
          "name": "tokenId",
          "type": "uint256"
        }
      ],
      "name": "approve",
      "outputs": [],
      "stateMutability": "nonpayable",
      "type": "function"
    },
    {
      "inputs": [
        {
          "internalType": "address",
          "name": "owner",
          "type": "address"
        }
      ],
      "name": "balanceOf",
      "outputs": [
        {
          "internalType": "uint256",
          "name": "",
          "type": "uint256"
        }
      ],
      "stateMutability": "view",
      "type": "function"
    },
    {
      "inputs": [
        {
          "internalType": "uint256",
          "name": "tokenId",
          "type": "uint256"
        }
      ],
      "name": "getApproved",
      "outputs": [
        {
          "internalType": "address",
          "name": "",
          "type": "address"
        }
      ],
      "stateMutability": "view",
      "type": "function"
    },
    {
      "inputs": [
        {
          "internalType": "address",
          "name": "owner",
          "type": "address"
        },
        {
          "internalType": "address",
          "name": "operator",
          "type": "address"
        }
      ],
      "name": "isApprovedForAll",
      "outputs": [
        {
          "internalType": "bool",
          "name": "",
          "type": "bool"
        }
      ],
      "stateMutability": "view",
      "type": "function"
    },
    {
      "inputs": [
        {
          "internalType": "string",
          "name": "_tokenURI",
          "type": "string"
        }
      ],
      "name": "mint",
      "outputs": [
        {
          "internalType": "uint256",
          "name": "",
          "type": "uint256"
        }
      ],
      "stateMutability": "nonpayable",
      "type": "function"
    },
    {
      "inputs": [],
      "name": "name",
      "outputs": [
        {
          "internalType": "string",
          "name": "",
          "type": "string"
        }
      ],
      "stateMutability": "view",
      "type": "function"
    },
    {
      "inputs": [
        {
          "internalType": "uint256",
          "name": "tokenId",
          "type": "uint256"
        }
      ],
      "name": "ownerOf",
      "outputs": [
        {
          "internalType": "address",
          "name": "",
          "type": "address"
        }
      ],
      "stateMutability": "view",
      "type": "function"
    },
    {
      "inputs": [
        {
          "internalType": "address",
          "name": "from",
          "type": "address"
        },
        {
          "internalType": "address",
          "name": "to",
          "type": "address"
        },
        {
          "internalType": "uint256",
          "name": "tokenId",
          "type": "uint256"
        }
      ],
      "name": "safeTransferFrom",
      "outputs": [],
      "stateMutability": "nonpayable",
      "type": "function"
    },
    {
      "inputs": [
        {
          "internalType": "address",
          "name": "from",
          "type": "address"
        },
        {
          "internalType": "address",
          "name": "to",
          "type": "address"
        },
        {
          "internalType": "uint256",
          "name": "tokenId",
          "type": "uint256"
        },
        {
          "internalType": "bytes",
          "name": "data",
          "type": "bytes"
        }
      ],
      "name": "safeTransferFrom",
      "outputs": [],
      "stateMutability": "nonpayable",
      "type": "function"
    },
    {
      "inputs": [
        {
          "internalType": "address",
          "name": "operator",
          "type": "address"
        },
        {
          "internalType": "bool",
          "name": "approved",
          "type": "bool"
        }
      ],
      "name": "setApprovalForAll",
      "outputs": [],
      "stateMutability": "nonpayable",
      "type": "function"
    },
    {
      "inputs": [
        {
          "internalType": "bytes4",
          "name": "interfaceId",
          "type": "bytes4"
        }
      ],
      "name": "supportsInterface",
      "outputs": [
        {
          "internalType": "bool",
          "name": "",
          "type": "bool"
        }
      ],
      "stateMutability": "view",
      "type": "function"
    },
    {
      "inputs": [],
      "name": "symbol",
      "outputs": [
        {
          "internalType": "string",
          "name": "",
          "type": "string"
        }
      ],
      "stateMutability": "view",
      "type": "function"
    },
    {
      "inputs": [],
      "name": "tokenCounter",
      "outputs": [
        {
          "internalType": "uint256",
          "name": "",
          "type": "uint256"
        }
      ],
      "stateMutability": "view",
      "type": "function"
    },
    {
      "inputs": [
        {
          "internalType": "uint256",
          "name": "_tokenId",
          "type": "uint256"
        }
      ],
      "name": "tokenURI",
      "outputs": [
        {
          "internalType": "string",
          "name": "",
          "type": "string"
        }
      ],
      "stateMutability": "view",
      "type": "function"
    },
    {
      "inputs": [
        {
          "internalType": "address",
          "name": "from",
          "type": "address"
        },
        {
          "internalType": "address",
          "name": "to",
          "type": "address"
        },
        {
          "internalType": "uint256",
          "name": "tokenId",
          "type": "uint256"
        }
      ],
      "name": "transferFrom",
      "outputs": [],
      "stateMutability": "nonpayable",
      "type": "function"
    }
  ],
  "bytecode": "0x60806040523480156200001157600080fd5b506040516200292d3803806200292d833981810160405281019062000037919062000197565b818181600090805190602001906200005192919062000075565b5080600190805190602001906200006a92919062000075565b50505050506200037a565b82805462000083906200029f565b90600052602060002090601f016020900481019282620000a75760008555620000f3565b82601f10620000c257805160ff1916838001178555620000f3565b82800160010185558215620000f3579182015b82811115620000f2578251825591602001919060010190620000d5565b5b50905062000102919062000106565b5090565b5b808211156200012157600081600090555060010162000107565b5090565b60006200013c620001368462000233565b6200020a565b9050828152602081018484840111156200015557600080fd5b6200016284828562000269565b509392505050565b600082601f8301126200017c57600080fd5b81516200018e84826020860162000125565b91505092915050565b60008060408385031215620001ab57600080fd5b600083015167ffffffffffffffff811115620001c657600080fd5b620001d4858286016200016a565b925050602083015167ffffffffffffffff811115620001f257600080fd5b62000200858286016200016a565b9150509250929050565b60006200021662000229565b9050620002248282620002d5565b919050565b6000604051905090565b600067ffffffffffffffff8211156200025157620002506200033a565b5b6200025c8262000369565b9050602081019050919050565b60005b83811015620002895780820151818401526020810190506200026c565b8381111562000299576000848401525b50505050565b60006002820490506001821680620002b857607f821691505b60208210811415620002cf57620002ce6200030b565b5b50919050565b620002e08262000369565b810181811067ffffffffffffffff821117156200030257620003016200033a565b5b80604052505050565b7f4e487b7100000000000000000000000000000000000000000000000000000000600052602260045260246000fd5b7f4e487b7100000000000000000000000000000000000000000000000000000000600052604160045260246000fd5b6000601f19601f8301169050919050565b6125a3806200038a6000396000f3fe608060405234801561001057600080fd5b50600436106100f55760003560e01c806370a0823111610097578063c87b56dd11610066578063c87b56dd14610282578063d082e381146102b2578063d85d3d27146102d0578063e985e9c514610300576100f5565b806370a08231146101fc57806395d89b411461022c578063a22cb4651461024a578063b88d4fde14610266576100f5565b8063095ea7b3116100d3578063095ea7b31461017857806323b872dd1461019457806342842e0e146101b05780636352211e146101cc576100f5565b806301ffc9a7146100fa57806306fdde031461012a578063081812fc14610148575b600080fd5b610114600480360381019061010f919061196e565b610330565b6040516101219190611cd4565b60405180910390f35b610132610412565b60405161013f9190611cef565b60405180910390f35b610162600480360381019061015d9190611a01565b6104a4565b60405161016f9190611c6d565b60405180910390f35b610192600480360381019061018d9190611932565b6104ea565b005b6101ae60048036038101906101a9919061182c565b610602565b005b6101ca60048036038101906101c5919061182c565b610662565b005b6101e660048036038101906101e19190611a01565b610682565b6040516101f39190611c6d565b60405180910390f35b610216600480360381019061021191906117c7565b610734565b6040516102239190611e91565b60405180910390f35b6102346107ec565b6040516102419190611cef565b60405180910390f35b610264600480360381019061025f91906118f6565b61087e565b005b610280600480360381019061027b919061187b565b610894565b005b61029c60048036038101906102979190611a01565b6108f6565b6040516102a99190611cef565b60405180910390f35b6102ba6109e3565b6040516102c79190611e91565b60405180910390f35b6102ea60048036038101906102e591906119c0565b6109e9565b6040516102f79190611e91565b60405180910390f35b61031a600480360381019061031591906117f0565b610a25565b6040516103279190611cd4565b60405180910390f35b60007f80ac58cd000000000000000000000000000000000000000000000000000000007bffffffffffffffffffffffffffffffffffffffffffffffffffffffff1916827bffffffffffffffffffffffffffffffffffffffffffffffffffffffff191614806103fb57507f5b5e139f000000000000000000000000000000000000000000000000000000007bffffffffffffffffffffffffffffffffffffffffffffffffffffffff1916827bffffffffffffffffffffffffffffffffffffffffffffffffffffffff1916145b8061040b575061040a82610ab9565b5b9050919050565b606060008054610421906120ab565b80601f016020809104026020016040519081016040528092919081815260200182805461044d906120ab565b801561049a5780601f1061046f5761010080835404028352916020019161049a565b820191906000526020600020905b81548152906001019060200180831161047d57829003601f168201915b5050505050905090565b60006104af82610b23565b6004600083815260200190815260200160002060009054906101000a900473ffffffffffffffffffffffffffffffffffffffff169050919050565b60006104f582610682565b90508073ffffffffffffffffffffffffffffffffffffffff168373ffffffffffffffffffffffffffffffffffffffff161415610566576040517f08c379a000000000000000000000000000000000000000000000000000000000815260040161055d90611e51565b60405180910390fd5b8073ffffffffffffffffffffffffffffffffffffffff16610585610b6e565b73ffffffffffffffffffffffffffffffffffffffff1614806105b457506105b3816105ae610b6e565b610a25565b5b6105f3576040517f08c379a00000000000000000000000000000000000000000000000000000000081526004016105ea90611dd1565b60405180910390fd5b6105fd8383610b76565b505050565b61061361060d610b6e565b82610c2f565b610652576040517f08c379a000000000000000000000000000000000000000000000000000000000815260040161064990611e71565b60405180910390fd5b61065d838383610cc4565b505050565b61067d83838360405180602001604052806000815250610894565b505050565b6000806002600084815260200190815260200160002060009054906101000a900473ffffffffffffffffffffffffffffffffffffffff169050600073ffffffffffffffffffffffffffffffffffffffff168173ffffffffffffffffffffffffffffffffffffffff16141561072b576040517f08c379a000000000000000000000000000000000000000000000000000000000815260040161072290611e31565b60405180910390fd5b80915050919050565b60008073ffffffffffffffffffffffffffffffffffffffff168273ffffffffffffffffffffffffffffffffffffffff1614156107a5576040517f08c379a000000000000000000000000000000000000000000000000000000000815260040161079c90611db1565b60405180910390fd5b600360008373ffffffffffffffffffffffffffffffffffffffff1673ffffffffffffffffffffffffffffffffffffffff168152602001908152602001600020549050919050565b6060600180546107fb906120ab565b80601f0160208091040260200160405190810160405280929190818152602001828054610827906120ab565b80156108745780601f1061084957610100808354040283529160200191610874565b820191906000526020600020905b81548152906001019060200180831161085757829003601f168201915b5050505050905090565b610890610889610b6e565b8383610f2b565b5050565b6108a561089f610b6e565b83610c2f565b6108e4576040517f08c379a00000000000000000000000000000000000000000000000000000000081526004016108db90611e71565b60405180910390fd5b6108f084848484611098565b50505050565b6060610901826110f4565b610940576040517f08c379a000000000000000000000000000000000000000000000000000000000815260040161093790611e11565b60405180910390fd5b60086000838152602001908152602001600020805461095e906120ab565b80601f016020809104026020016040519081016040528092919081815260200182805461098a906120ab565b80156109d75780601f106109ac576101008083540402835291602001916109d7565b820191906000526020600020905b8154815290600101906020018083116109ba57829003601f168201915b50505050509050919050565b60075481565b6000600760008154809291906109fe9061210e565b9190505550610a0f33600754611160565b610a1b6007548361117e565b6007549050919050565b6000600560008473ffffffffffffffffffffffffffffffffffffffff1673ffffffffffffffffffffffffffffffffffffffff16815260200190815260200160002060008373ffffffffffffffffffffffffffffffffffffffff1673ffffffffffffffffffffffffffffffffffffffff16815260200190815260200160002060009054906101000a900460ff16905092915050565b60007f01ffc9a7000000000000000000000000000000000000000000000000000000007bffffffffffffffffffffffffffffffffffffffffffffffffffffffff1916827bffffffffffffffffffffffffffffffffffffffffffffffffffffffff1916149050919050565b610b2c816110f4565b610b6b576040517f08c379a0000000000000000000000000000000000000000000000000000000008152600401610b6290611e31565b60405180910390fd5b50565b600033905090565b816004600083815260200190815260200160002060006101000a81548173ffffffffffffffffffffffffffffffffffffffff021916908373ffffffffffffffffffffffffffffffffffffffff160217905550808273ffffffffffffffffffffffffffffffffffffffff16610be983610682565b73ffffffffffffffffffffffffffffffffffffffff167f8c5be1e5ebec7d5bd14f71427d1e84f3dd0314c0f7b2291e5b200ac8c7c3b92560405160405180910390a45050565b600080610c3b83610682565b90508073ffffffffffffffffffffffffffffffffffffffff168473ffffffffffffffffffffffffffffffffffffffff161480610c7d5750610c7c8185610a25565b5b80610cbb57508373ffffffffffffffffffffffffffffffffffffffff16610ca3846104a4565b73ffffffffffffffffffffffffffffffffffffffff16145b91505092915050565b8273ffffffffffffffffffffffffffffffffffffffff16610ce482610682565b73ffffffffffffffffffffffffffffffffffffffff1614610d3a576040517f08c379a0000000000000000000000000000000000000000000000000000000008152600401610d3190611d31565b60405180910390fd5b600073ffffffffffffffffffffffffffffffffffffffff168273ffffffffffffffffffffffffffffffffffffffff161415610daa576040517f08c379a0000000000000000000000000000000000000000000000000000000008152600401610da190611d71565b60405180910390fd5b610db58383836111f2565b610dc0600082610b76565b6001600360008573ffffffffffffffffffffffffffffffffffffffff1673ffffffffffffffffffffffffffffffffffffffff1681526020019081526020016000206000828254610e109190611fc1565b925050819055506001600360008473ffffffffffffffffffffffffffffffffffffffff1673ffffffffffffffffffffffffffffffffffffffff1681526020019081526020016000206000828254610e679190611f6b565b92505081905550816002600083815260200190815260200160002060006101000a81548173ffffffffffffffffffffffffffffffffffffffff021916908373ffffffffffffffffffffffffffffffffffffffff160217905550808273ffffffffffffffffffffffffffffffffffffffff168473ffffffffffffffffffffffffffffffffffffffff167fddf252ad1be2c89b69c2b068fc378daa952ba7f163c4a11628f55a4df523b3ef60405160405180910390a4610f268383836111f7565b505050565b8173ffffffffffffffffffffffffffffffffffffffff168373ffffffffffffffffffffffffffffffffffffffff161415610f9a576040517f08c379a0000000000000000000000000000000000000000000000000000000008152600401610f9190611d91565b60405180910390fd5b80600560008573ffffffffffffffffffffffffffffffffffffffff1673ffffffffffffffffffffffffffffffffffffffff16815260200190815260200160002060008473ffffffffffffffffffffffffffffffffffffffff1673ffffffffffffffffffffffffffffffffffffffff16815260200190815260200160002060006101000a81548160ff0219169083151502179055508173ffffffffffffffffffffffffffffffffffffffff168373ffffffffffffffffffffffffffffffffffffffff167f17307eab39ab6107e8899845ad3d59bd9653f200f220920489ca2b5937696c318360405161108b9190611cd4565b60405180910390a3505050565b6110a3848484610cc4565b6110af848484846111fc565b6110ee576040517f08c379a00000000000000000000000000000000000000000000000000000000081526004016110e590611d11565b60405180910390fd5b50505050565b60008073ffffffffffffffffffffffffffffffffffffffff166002600084815260200190815260200160002060009054906101000a900473ffffffffffffffffffffffffffffffffffffffff1673ffffffffffffffffffffffffffffffffffffffff1614159050919050565b61117a828260405180602001604052806000815250611393565b5050565b611187826110f4565b6111c6576040517f08c379a00000000000000000000000000000000000000000000000000000000081526004016111bd90611e11565b60405180910390fd5b806008600084815260200190815260200160002090805190602001906111ed9291906115eb565b505050565b505050565b505050565b600061121d8473ffffffffffffffffffffffffffffffffffffffff166113ee565b15611386578373ffffffffffffffffffffffffffffffffffffffff1663150b7a02611246610b6e565b8786866040518563ffffffff1660e01b81526004016112689493929190611c88565b602060405180830381600087803b15801561128257600080fd5b505af19250505080156112b357506040513d601f19601f820116820180604052508101906112b09190611997565b60015b611336573d80600081146112e3576040519150601f19603f3d011682016040523d82523d6000602084013e6112e8565b606091505b5060008151141561132e576040517f08c379a000000000000000000000000000000000000000000000000000000000815260040161132590611d11565b60405180910390fd5b805181602001fd5b63150b7a0260e01b7bffffffffffffffffffffffffffffffffffffffffffffffffffffffff1916817bffffffffffffffffffffffffffffffffffffffffffffffffffffffff19161491505061138b565b600190505b949350505050565b61139d8383611411565b6113aa60008484846111fc565b6113e9576040517f08c379a00000000000000000000000000000000000000000000000000000000081526004016113e090611d11565b60405180910390fd5b505050565b6000808273ffffffffffffffffffffffffffffffffffffffff163b119050919050565b600073ffffffffffffffffffffffffffffffffffffffff168273ffffffffffffffffffffffffffffffffffffffff161415611481576040517f08c379a000000000000000000000000000000000000000000000000000000000815260040161147890611df1565b60405180910390fd5b61148a816110f4565b156114ca576040517f08c379a00000000000000000000000000000000000000000000000000000000081526004016114c190611d51565b60405180910390fd5b6114d6600083836111f2565b6001600360008473ffffffffffffffffffffffffffffffffffffffff1673ffffffffffffffffffffffffffffffffffffffff16815260200190815260200160002060008282546115269190611f6b565b92505081905550816002600083815260200190815260200160002060006101000a81548173ffffffffffffffffffffffffffffffffffffffff021916908373ffffffffffffffffffffffffffffffffffffffff160217905550808273ffffffffffffffffffffffffffffffffffffffff16600073ffffffffffffffffffffffffffffffffffffffff167fddf252ad1be2c89b69c2b068fc378daa952ba7f163c4a11628f55a4df523b3ef60405160405180910390a46115e7600083836111f7565b5050565b8280546115f7906120ab565b90600052602060002090601f0160209004810192826116195760008555611660565b82601f1061163257805160ff1916838001178555611660565b82800160010185558215611660579182015b8281111561165f578251825591602001919060010190611644565b5b50905061166d9190611671565b5090565b5b8082111561168a576000816000905550600101611672565b5090565b60006116a161169c84611ed1565b611eac565b9050828152602081018484840111156116b957600080fd5b6116c4848285612069565b509392505050565b60006116df6116da84611f02565b611eac565b9050828152602081018484840111156116f757600080fd5b611702848285612069565b509392505050565b60008135905061171981612511565b92915050565b60008135905061172e81612528565b92915050565b6000813590506117438161253f565b92915050565b6000815190506117588161253f565b92915050565b600082601f83011261176f57600080fd5b813561177f84826020860161168e565b91505092915050565b600082601f83011261179957600080fd5b81356117a98482602086016116cc565b91505092915050565b6000813590506117c181612556565b92915050565b6000602082840312156117d957600080fd5b60006117e78482850161170a565b91505092915050565b6000806040838503121561180357600080fd5b60006118118582860161170a565b92505060206118228582860161170a565b9150509250929050565b60008060006060848603121561184157600080fd5b600061184f8682870161170a565b93505060206118608682870161170a565b9250506040611871868287016117b2565b9150509250925092565b6000806000806080858703121561189157600080fd5b600061189f8782880161170a565b94505060206118b08782880161170a565b93505060406118c1878288016117b2565b925050606085013567ffffffffffffffff8111156118de57600080fd5b6118ea8782880161175e565b91505092959194509250565b6000806040838503121561190957600080fd5b60006119178582860161170a565b92505060206119288582860161171f565b9150509250929050565b6000806040838503121561194557600080fd5b60006119538582860161170a565b9250506020611964858286016117b2565b9150509250929050565b60006020828403121561198057600080fd5b600061198e84828501611734565b91505092915050565b6000602082840312156119a957600080fd5b60006119b784828501611749565b91505092915050565b6000602082840312156119d257600080fd5b600082013567ffffffffffffffff8111156119ec57600080fd5b6119f884828501611788565b91505092915050565b600060208284031215611a1357600080fd5b6000611a21848285016117b2565b91505092915050565b611a3381611ff5565b82525050565b611a4281612007565b82525050565b6000611a5382611f33565b611a5d8185611f49565b9350611a6d818560208601612078565b611a76816121e4565b840191505092915050565b6000611a8c82611f3e565b611a968185611f5a565b9350611aa6818560208601612078565b611aaf816121e4565b840191505092915050565b6000611ac7603283611f5a565b9150611ad2826121f5565b604082019050919050565b6000611aea602583611f5a565b9150611af582612244565b604082019050919050565b6000611b0d601c83611f5a565b9150611b1882612293565b602082019050919050565b6000611b30602483611f5a565b9150611b3b826122bc565b604082019050919050565b6000611b53601983611f5a565b9150611b5e8261230b565b602082019050919050565b6000611b76602983611f5a565b9150611b8182612334565b604082019050919050565b6000611b99603e83611f5a565b9150611ba482612383565b604082019050919050565b6000611bbc602083611f5a565b9150611bc7826123d2565b602082019050919050565b6000611bdf602c83611f5a565b9150611bea826123fb565b604082019050919050565b6000611c02601883611f5a565b9150611c0d8261244a565b602082019050919050565b6000611c25602183611f5a565b9150611c3082612473565b604082019050919050565b6000611c48602e83611f5a565b9150611c53826124c2565b604082019050919050565b611c678161205f565b82525050565b6000602082019050611c826000830184611a2a565b92915050565b6000608082019050611c9d6000830187611a2a565b611caa6020830186611a2a565b611cb76040830185611c5e565b8181036060830152611cc98184611a48565b905095945050505050565b6000602082019050611ce96000830184611a39565b92915050565b60006020820190508181036000830152611d098184611a81565b905092915050565b60006020820190508181036000830152611d2a81611aba565b9050919050565b60006020820190508181036000830152611d4a81611add565b9050919050565b60006020820190508181036000830152611d6a81611b00565b9050919050565b60006020820190508181036000830152611d8a81611b23565b9050919050565b60006020820190508181036000830152611daa81611b46565b9050919050565b60006020820190508181036000830152611dca81611b69565b9050919050565b60006020820190508181036000830152611dea81611b8c565b9050919050565b60006020820190508181036000830152611e0a81611baf565b9050919050565b60006020820190508181036000830152611e2a81611bd2565b9050919050565b60006020820190508181036000830152611e4a81611bf5565b9050919050565b60006020820190508181036000830152611e6a81611c18565b9050919050565b60006020820190508181036000830152611e8a81611c3b565b9050919050565b6000602082019050611ea66000830184611c5e565b92915050565b6000611eb6611ec7565b9050611ec282826120dd565b919050565b6000604051905090565b600067ffffffffffffffff821115611eec57611eeb6121b5565b5b611ef5826121e4565b9050602081019050919050565b600067ffffffffffffffff821115611f1d57611f1c6121b5565b5b611f26826121e4565b9050602081019050919050565b600081519050919050565b600081519050919050565b600082825260208201905092915050565b600082825260208201905092915050565b6000611f768261205f565b9150611f818361205f565b9250827fffffffffffffffffffffffffffffffffffffffffffffffffffffffffffffffff03821115611fb657611fb5612157565b5b828201905092915050565b6000611fcc8261205f565b9150611fd78361205f565b925082821015611fea57611fe9612157565b5b828203905092915050565b60006120008261203f565b9050919050565b60008115159050919050565b60007fffffffff0000000000000000000000000000000000000000000000000000000082169050919050565b600073ffffffffffffffffffffffffffffffffffffffff82169050919050565b6000819050919050565b82818337600083830152505050565b60005b8381101561209657808201518184015260208101905061207b565b838111156120a5576000848401525b50505050565b600060028204905060018216806120c357607f821691505b602082108114156120d7576120d6612186565b5b50919050565b6120e6826121e4565b810181811067ffffffffffffffff82111715612105576121046121b5565b5b80604052505050565b60006121198261205f565b91507fffffffffffffffffffffffffffffffffffffffffffffffffffffffffffffffff82141561214c5761214b612157565b5b600182019050919050565b7f4e487b7100000000000000000000000000000000000000000000000000000000600052601160045260246000fd5b7f4e487b7100000000000000000000000000000000000000000000000000000000600052602260045260246000fd5b7f4e487b7100000000000000000000000000000000000000000000000000000000600052604160045260246000fd5b6000601f19601f8301169050919050565b7f4552433732313a207472616e7366657220746f206e6f6e20455243373231526560008201527f63656976657220696d706c656d656e7465720000000000000000000000000000602082015250565b7f4552433732313a207472616e736665722066726f6d20696e636f72726563742060008201527f6f776e6572000000000000000000000000000000000000000000000000000000602082015250565b7f4552433732313a20746f6b656e20616c7265616479206d696e74656400000000600082015250565b7f4552433732313a207472616e7366657220746f20746865207a65726f2061646460008201527f7265737300000000000000000000000000000000000000000000000000000000602082015250565b7f4552433732313a20617070726f766520746f2063616c6c657200000000000000600082015250565b7f4552433732313a2061646472657373207a65726f206973206e6f74206120766160008201527f6c6964206f776e65720000000000000000000000000000000000000000000000602082015250565b7f4552433732313a20617070726f76652063616c6c6572206973206e6f7420746f60008201527f6b656e206f776e6572206e6f7220617070726f76656420666f7220616c6c0000602082015250565b7f4552433732313a206d696e7420746f20746865207a65726f2061646472657373600082015250565b7f4552433732314d657461646174613a2055524920736574206f66206e6f6e657860008201527f697374656e7420746f6b656e0000000000000000000000000000000000000000602082015250565b7f4552433732313a20696e76616c696420746f6b656e2049440000000000000000600082015250565b7f4552433732313a20617070726f76616c20746f2063757272656e74206f776e6560008201527f7200000000000000000000000000000000000000000000000000000000000000602082015250565b7f4552433732313a2063616c6c6572206973206e6f7420746f6b656e206f776e6560008201527f72206e6f7220617070726f766564000000000000000000000000000000000000602082015250565b61251a81611ff5565b811461252557600080fd5b50565b61253181612007565b811461253c57600080fd5b50565b61254881612013565b811461255357600080fd5b50565b61255f8161205f565b811461256a57600080fd5b5056fea26469706673582212204c6d4eb47592ebc0263567857537a16deec9310ba64bbae30a6c48870f935d9e64736f6c63430008040033",
  "linkReferences": {},
  "deployedLinkReferences": {}
}